:020000040100F9
:1000000060AB0021D9A802017F0C0301C5A8020141
:10001000C5A80201C5A80201C5A802010000000090
:1000200000000000000000000000000035AA0201EE
:10003000C5A8020100000000D5A90201C5A802015F
:10004000A5AB0201A5AB0201A5AB0201A5AB020164
:10005000A5AB0201A5AB0201A5AB0201A5AB020154
:1000600083140301A5AB0201A5AB0201A5AB0201FC
:1000700099140301A5AB0201A5AB0201A5AB0201D6
:10008000A5AB020169140301A5AB0201A5AB0201F6
:10009000A5AB0201A5AB0201A5AB0201A5AB020114
:1000A000A5AB0201A5AB0201A5AB0201A5AB020104
:1000B000A5AB0201A5AB0201054B00221B788260B3
:1000C00001330260034A4260C371FF230372704729
:1000D000B003002180010800064A074B02604FF47C
:1000E00022729B7882800822C3710023827103727E
:1000F000704700BF437B0201B0030021064A074B53
:1001000002604FF43E72DB7882800822C3710023C4
:1001100082710372704700BF51770201B003002162
:10012000064A074B02604FF4C472DB7A82800822D1
:10013000C371FF2382710372704700BFA771020170
:10014000B0030021054A064B0260B822DB7B8280A7
:100150000822C371FF23827103727047617C020120
:10016000B0030021054A064B0260D0229B7D8280AD
:100170000822C3710123827103727047B18F01019C
:10018000B0030021054A064B0260A0225B7E8280FC
:100190000822C37102238271037270471593000114
:1001A000B0030021064A074B02604FF408729B7EA1
:1001B00082800822C371002382710372704700BFDE
:1001C000A18A0001B0030021064A074B02604FF4E8
:1001D000A472DB7E82800822C371FF2382710372C6
:1001E000704700BFF3810201B0030021044B1A7F66
:1001F000002303608360034B4360C271704700BFFC
:10020000B003002100010800044B5A7F0023036063
:100210008360034B4360C271704700BFB00300218D
:1002200000010800064A9378D278134400228260C5
:100230000260044A4260C371FF230372704700BF2B
:10024000B0030021880008002DE9F341C41D0028F7
:10025000064624F007040CBF0020204600F008FDED
:10026000071E04DA6FF00B0002B0BDE8F081374DD5
:10027000E988A88803316B7A03302A7A89B280B280
:1002800021F0BAFC0028EDDB3C44A978EB78002E85
:1002900004F10304194424F0030400FB01F10CBF32
:1002A0000020204600F086FE20440EB90028D9DB4D
:1002B000EA7A0446B2B1EB7B697C13441944FF2906
:1002C000D0D80330002EAA89C9B220F003040CBF95
:1002D0000020204600F0E0FE0028C3DB04440EB9F5
:1002E000002CBFDB012000F0B9FCB0B1A97BA1B1AB
:1002F00095F82A3033B340234FF481720734002E2F
:1003000024F007040CBF0020204605F0F3FC002871
:10031000A8DB04440EB9002CA4DBAB7AFBB1EB7A6A
:10032000B3B10734002EA97A24F007040CBF0020D3
:10033000204611F081FD002894DB04447EB9002C96
:100340000DDA8FE725232822D8E700BFB00300216C
:10035000012000F083FC10B1AB7B002BE1D1734B8B
:100360001B6893B1A97D81B10334002EEA7D24F08E
:1003700003040CBF0020204698470028FFF672AF08
:10038000044416B9002CFFF66DAF694B1B688BB1A6
:10039000297C79B10334002E24F003040CBF002023
:1003A000204698470028FFF65DAF044416B9002C9C
:1003B000FFF658AF5F4B1F68B7B1697CA1B103343A
:1003C000002E2B7D24F0030408BF0020009318BFEB
:1003D0002046EB7CAA7CB8470028FFF643AF0444D4
:1003E00016B9002CFFF63EAF072000F037FC98B19D
:1003F000A97D89B10334002E2A7E24F003040CBFAA
:100400000020204600F0B8FF0028FFF62BAF044480
:1004100016B9002CFFF626AFB6FA86F795F823003A
:100420007F09A0B103346B7FA97E24F0070419442F
:100430003B4644F00404C9B2224600F0DDFF002828
:10044000FFF610AF044416B9002CFFF60BAF95F879
:10045000241000294CD004F10708002EEA8C28F063
:1004600007080CBF0020404621F0DAFB041EFFF60F
:10047000F9AE4444002E3ED1002CFFF6F3AEA97F26
:10048000002945D095F82230002B41D02A8C073422
:10049000002E02F1240224F007080CBF0020404681
:1004A00092B221F0BDFB0028FFF6DCAE404416B945
:1004B0000028FFF6D7AE03302B7FA97E20F007007F
:1004C00019443B4640F0040495F82200C9B2224684
:1004D00000F084FF0028FFF6C5AE044486B9002C66
:1004E000FFF6C0AEEB6AF3B1C6B1EC620020BBE62A
:1004F000002EC4D08846E98C40461DF0C7F8BEE700
:100500002A8C4046A97F083292B21DF02FFBE9E702
:10051000002EE7D0002211461046F6E728343FF5BA
:10052000A1AE2046A0E6002EE0D1FAE7B4100021EB
:10053000B8100021BC1000211FB572B6194B1C6BFE
:10054000ECB9BFF34F8F1849184BCA6802F4E06248
:100550001343CB60BFF34F8F00BFFDE7B2FBF6F252
:100560002B465D1C002AF9D1DBB203F110056D4466
:1005700005F80C2C0A2233B901A8A047E1E702468E
:1005800000230A26EDE7013BDBB203F110050DEB7A
:100590000506B0FBF2F502FB1500303006F80C0C36
:1005A0002846E8E7B003002100ED00E00400FA056A
:1005B00013B5124C68462389ADF80030E388ADF8D6
:1005C0000430A388ADF802300EF0A6F818B1FC2173
:1005D0009C20FFF7B1FF207D0EF00AF908B1FF2142
:1005E000F6E7E07C0EF0FEF810B14FF48071EFE713
:1005F00094F828001BF01CF802B010BDB0030021D5
:1006000038B5054600283DD020F064F910B94FF008
:10061000FF3038BD1EF064F8B0F5FA7FF7D81B4CF8
:10062000002125631B2504F10F0084F834102A46AD
:10063000217084F82A10E16220F060FC012303217C
:1006400008200222A370E370E372A3742376F723D9
:1006500021722384FB23A0721F20A1734921E3840C
:100660000A23A580E5806272A081E174E27584F8B6
:100670002830EFF3108472B600F0F8FE04B962B6C9
:100680000020C6E76FF01500C3E700BFB0030021EC
:1006900038B51446002840F0C480634D95F83430D6
:1006A000032B00F0BB80B9B112B96FF0150038BD53
:1006B0000139172900F2B580DFE801F00C1D203662
:1006C0006069873C6C6F814248565B8D909FA2A504
:1006D00096B3B3A81378AB700020FFF7B5FD0028E0
:1006E000B7BF012302236FF00B0085F83430A8BF99
:1006F00085F83430DBE71378EB70EDE71379002BE6
:10070000D3D05379002BD0D01288FB2ACDD8638860
:100710001B3B9BB2E02BC8D81A2AC6D92368A288F3
:100720006B60424B9A80D7E71378EA7B9342BCD345
:10073000EB72D1E71378EA7A9342B6D8EB73CBE742
:100740001378EA7A9342B0D86B74C5E71378002B1C
:10075000ABD05378013BDBB2F82BA6D81388927844
:100760006B82334B9A70B7E71078687518F096FA79
:10077000B2E71378002B98D02B76ADE7012000F07C
:100780006DFA237808B1012B8FD9AB73A4E71388D6
:10079000AB81A1E71378AB759EE7072000F05EFA06
:1007A00010B92378012B80D9072000F057FA18B12F
:1007B0002378002B3FF479AF2378EB758CE713781F
:1007C000082B3FF672AF2B7486E71388FF2B3FF69A
:1007D0006CAFAB7280E713786B767DE713780E2BE6
:1007E0003FF663AFAB7677E72368124AC5F81E3051
:1007F00063685360238913816EE71378EB766BE7A8
:1008000013786B7768E713782B7765E713785A1EB0
:10081000092A3FF64AAF85F828305DE74FF0FF30F0
:1008200045E76FF02C0042E7B0030021B40300213C
:10083000C2030021CE030021F8B50D46064630B3B1
:1008400029B311F0070422D1124F97F83430012B4D
:1008500002D16FF00B00F8BD032B02D14FF0FF3037
:10086000F9E700F017F90028F8D02846FFF7ECFC6C
:100870000028EEDB1AF0E2FE3046F96A0FF0BCF910
:10088000FFF796FE0323204687F83430E3E76FF046
:100890001500E0E7B003002110B5074C94F83430A0
:1008A000032B03D10FF0C0F910F092F921F059FB9E
:1008B000002084F8340010BDB003002150B1074B74
:1008C00003F1140253F8041B934240F8041BF9D1BE
:1008D000002070476FF01500704700BF623E0301B3
:1008E00008B50FF081F803490320BDE8084000F087
:1008F000ADB900BF2101000108B50FF08FF8034921
:100900000220BDE8084000F0A1B900BFFD000001D1
:1009100008B50FF0A5F80649012000F097F9054940
:10092000002000F093F9044B012283F82A2008BD2F
:10093000B9000001D9000001B003002108B50FF093
:10094000B1F803490420BDE8084000F07FB900BFBA
:100950004501000108B50FF0BFF80549052000F07A
:1009600075F9044B044A1A60044B054A1A6008BD25
:1009700065010001B410002149970101B810002160
:10098000ED12000108B50FF0BFF80549082000F08E
:100990005DF904490920BDE8084000F057B900BFDF
:1009A00085010001A501000108B50FF0CBF823F087
:1009B000BFFC0549082000F049F904490920BDE8B9
:1009C000084000F043B900BF85010001A501000106
:1009D00008B50FF0D5F805490A2000F037F90449A9
:1009E0000B20BDE8084000F031B900BFC90100018B
:1009F000ED01000108B50FF0E1F805490A2000F00B
:100A000025F904490C20BDE8084000F01FB900BFDB
:100A1000C90100010902000108B50EF065FF034994
:100A20000F20BDE8084000F011B900BF2502000109
:100A300008B50EF073FF03490F20BDE8084000F031
:100A400005B900BF2502000108B50EF097FF034964
:100A50000F20BDE8084000F0F9B800BF25020001F2
:100A600008B50EF075FF03490F20BDE8084000F0FF
:100A7000EDB800BF2502000102680020014B1A609A
:100A8000704700BFE8030021014B1B68184700BFF7
:100A9000E8030021024B1868003818BF0120704796
:100AA000E8030021074B4FF0FF3141F6FF72C3E925
:100AB000001205490022C1E900221F21C3E90212E8
:100AC000704700BF00000021EC0300213F280CD834
:100AD00001380B4BC0F3421200F01F0053F82230D4
:100AE00023FA00F000F001007047FF2806D04038DC
:100AF000044BC0F3421200F01F00EFE701207047E3
:100B000000000021EC030021074B01460068496802
:100B10001A4603C240F48C2200201A6041F0107281
:100B200042F4FF625A607047000000210246034B06
:100B30000068516803C30020704700BFEC03002128
:100B40000246034B0068516803C30020704700BF92
:100B500008000021431E3828DBB21FBF064A59098E
:100B600003F01F0302EB81021DBF9068D84000F024
:100B700001000020704700BF000000210A8870B506
:100B800095B2C67CC2F30E020488023602F1180345
:100B90003444C35AA4B233442344013BB3FBF4F3BB
:100BA00003FB0422438892B29342044B8BBF2B4039
:100BB000AB4313439BB20B8070BD00BF0080FFFFAF
:100BC0004A1E062A08B50346084604D84FF4D171D8
:100BD0001520FFF7B1FC094A914202D940F2A31156
:100BE000F6E711B903B1196008BD2BB11B680022EB
:100BF000C3E901211A1D1A600430F5E7FAFFFF7FEF
:100C000010B5114B00EB41041A786389B3FBF2F382
:100C100003FB0223013A1A44B2F5706F027980781F
:100C200028BF00231A440B18B2FBF0F100FB11217E
:100C30005B1AB3FBF0F100FB113313446FEA43433B
:100C40006FEA5343638110BDF4030021024B03EBB1
:100C500080035960704700BFF4030021034B03EB8E
:100C600080035868003818BF01207047F403002142
:100C70002DE9F04F10F0070A85B0054604D040F288
:100C80006F111720FFF758FC534F04464FF0010B2C
:100C900007F14C06B146B04657F8043B8DF80BA05F
:100CA0003BB101A898479DF80A30082B01D9F521DE
:100CB000E7E79DF80B1041BB05B131604F4506F1E8
:100CC0000406E9D1002D6FD00022DFF81091122721
:100CD000964689F8002058F827A0013FBAF1000F86
:100CE00055D09AF804609AF802C0FF2E60D03946B9
:100CF0000023481C38D19C44BCF1FF0F3FD90AB1F6
:100D000089F800E04FF49A71BBE79DF80AC04B1DCB
:100D100060465A0004EB4303022838BF0220441EF9
:100D200040422344BDF808406444CCF1000C034029
:100D3000013C04EA0C04B4F5803F02D340F20511F3
:100D40009FE775B19A1A32609170148082F803B0EF
:100D50009DF80C00107101984FEA104C1081A2F818
:100D600006C004FB0134A9E758F8210028B190F827
:100D700004B0B34504BF80781B180139B9E7DBB272
:100D8000E6458AF804303CBF5FFA8CFE01227B1CEA
:100D9000A1D10AB189F800E0122640F6FF6A58F89E
:100DA0002670B7B9013EFAD2601B05B0BDE8F08FDE
:100DB0000023E5E707EB410309F101093846A3F8F1
:100DC0000AA0FFF71DFF5FFA89F1BB788B42F1D8CB
:100DD000E8E74FF00009F6E7F8030021F4030021EB
:100DE000034B03EB8003186D00B18078704700BFA0
:100DF000F403002138B54FF6FF7302460380184B09
:100E000003EB8103186DA8B184780379B3FBF4F187
:100E100004FB1133DBB2194600EB4105B5F90A506A
:100E2000002D0EDB0131B1FBF4F504FB1511C9B245
:100E30008B42F1D1002038BD6381BDE8384020F0FD
:100E400093BE00EB41046389C3F30E031380C278A1
:100E5000002AF1D14FF4E5711720FFF76DFB00BFB9
:100E6000F40300211C4B03EB810370B51C6D054698
:100E700044B3030404D54FF4EC711720FFF75CFB77
:100E80000146204620F053FEFF28014604D02046AC
:100E9000BDE8704020F068BEA078B5FBF0F300FB21
:100EA0001353DBB219460A1D04EB4206B6F9026081
:100EB000002E09DB0131B1FBF0F200FB1211C9B2C7
:100EC0008B42F0D1002070BD8B4201D00023E37033
:100ED00004EB42025580DAE7F4030021094B03EBEF
:100EE0008103014610B51C6D204620F020FEFF282E
:100EF000014604D02046BDE8104020F035BE002059
:100F000010BD00BFF4030021F8B5104B074603EBFA
:100F1000810301461C6D204620F009FEFF2805468E
:100F200011D0E288238953EA024606D001462046C2
:100F300020F01AFE01463846B04720462946FFF702
:100F40005FFE0020F8BD0520FCE700BFF403002190
:100F500038B50E4B0446827903EB8203186D08B94D
:100F6000052038BD8278E1799142F9D24B1CE371BA
:100F700000EB41035D89B3F90A30002BF3DBA58058
:100F800020F0F2FD20600020EBE700BFF403002119
:100F900008B5074B03EB81030146186D20F0C7FD30
:100FA000FF2804D140F23E211720FFF7C5FA08BD03
:100FB000F403002170B5044610F003000E4603D080
:100FC0004E211820FFF7B8FAFFF7FAFD054624B1C5
:100FD000034831460460FFF7F3FD284670BD00BFAB
:100FE000900400212DE9F14FDFF870B01E4607464E
:100FF0000D46DBF8003090469DF828A09DF82C9017
:101000001BB960211820FFF797FA52460921404684
:1010100020F0F9FB4A4684B20921304620F0F3FB68
:1010200081B2DBF80000214420F055FD386018B98A
:10103000286001B0BDE8F08F0444534641460922C0
:101040002C60386820F095FB4B4609223146286811
:1010500001B0BDE8F04F20F08CBB00BF9004002130
:1010600070B50E46044620F0E1FB0546304620F000
:10107000DDFB044B2A1821461868BDE8704020F0BB
:101080004FBD00BF90040021024B186808B120F04A
:1010900016BD7047900400211F2AF8B50446134678
:1010A0000ED89200033222F00303B3F5803F2DD215
:1010B000184DACB1A00710D068210920FFF73CFA09
:1010C000FF2B4FEA420204D9FF339A42A8BF1A46C7
:1010D000E8E77C2AB8BF7C22E4E729706C602B81AA
:1010E00022F0030228230127120403FB01F06B689E
:1010F0000025120CEEB2B14200D8F8BD14B126188A
:101100001F705E60104401352833F3E74FF0FF3065
:10111000F3E700BF94040021154A002170B553681D
:101120001578C8B2854203D8BA210920FFF704FA1E
:101130001C461846013114F8286B0EB92346F0E717
:101140000021997001241289996103F126055C70D0
:101150009208D96103F11E04596824F8022FA542B0
:1011600043F8041F1144F8D100234361037070BD9C
:10117000940400210A4B1B89B3F5FF7F4FEA9300CB
:1011800006D25A089B1A9BB2984238BF184670473D
:10119000B3F5EE6F01D8FF22F4E740F27263F3E794
:1011A000940400214B782DE9F04106460C4602F0EC
:1011B000040702F0FB05E3B1A5BBFF23A3707B0886
:1011C00004EB57073A7D032A02D1022D18BF0133E1
:1011D000E2180121117503F10C01002204EB8303D5
:1011E00024F811205B68A27030463360B280BDE8FD
:1011F000F081002DE1D1012301F11E028D61204615
:101200004B7004F1260C1A4BCD611B8949689B0871
:1012100022F8023F944540F8041F1944F8D10023F6
:101220006361CAE7D1F8048014220021A01861701C
:101230001FF064FE0E4B1B89B3F5FF7F0FD25A08D7
:101240009B1A9BB208EB0301C4F804802384A160BD
:101250006284C4F80C80A3842161E284ADE7B3F515
:10126000EE6F4FF0FF02EBD940F27263EAE700BF86
:1012700094040021F7B5D2000B684000002502F06D
:101280007802CDF8013000F006008B880243ADF8FB
:1012900005300D4B42F001021E785F688DF800208A
:1012A000EBB29E4201D800240AE0C5EBC504072238
:1012B000694601353C4420461FF0C2FD0028EFD1AD
:1012C000204603B0F0BD00BFA0040021014B1878F8
:1012D000704700BFA0040021034B00211A78586812
:1012E000C2EBC2021FF00ABEA004002110B50C46DA
:1012F00050B1830703D020214120FFF71DF9044B93
:1013000058601970FFF7E8FFC4EBC40010BD00BFC0
:10131000A0040021F8B504460D461646FFF7AAFFC3
:10132000034628BB134A92F800E05168DAB29645AA
:1013300001D807201BE0C3EBC3070133CA5D01EBF3
:10134000070C12F00100F1D1630022F07F02F600D9
:1013500003F0060306F0780643F00103334313431A
:10136000CB552B68CCF80130AB88ACF80530F8BD14
:101370001220FCE7A00400212DE9F84305460C46A5
:10138000F7200521914620F03EFA061E21DB1DB90B
:1013900006FB04F0BDE8F88315F0030703D098219D
:1013A0001920FFF7C9F8DFF83080C8F81050A8F806
:1013B0001460BBB29C42EBD9B8F814504B46D8F835
:1013C00010000522F72107FB0500013720F0D1F9B5
:1013D000EFE74FF0FF30DDE7A804002107B5CDE9C6
:1013E00000230B4603490246081D20F06AFD03B0A6
:1013F0005DF804FBC004002113B5064CCDE90023C1
:101400000B46024604F1080104F10C0020F059FDDE
:1014100002B010BDC0040021024B0146186820F044
:1014200042BD00BFC0040021024BD3E9002120F0DF
:101430006EBD00BFC0040021034B1B28D3E902216D
:1014400038BF1B2020F063BDC0040021024B0146C1
:10145000D3E9002020F064BBC0040021024B014608
:10146000D3E9022020F05CBBC0040021144B012210
:1014700000214FF0FF309A60C3F80012C3F8080350
:10148000C3F80015C3F804259A60C3F808034FF4A5
:101490008040C3F80015C3F8042503F5805341F6D6
:1014A000F8720849C3F80825C1F88000BFF34F8FD0
:1014B000BFF36F8FC1F88001C3F80825704700BFE4
:1014C00000E0004100E100E08C463422064B00B50C
:1014D0000CF8032B8E4607CBCEF80300CCF8041093
:1014E000CCF808205DF804FBDC0400212DE9F04174
:1014F0001C4D044600F0010795F82460B6F1000881
:1015000018BF4FF001081EB117B1AB8D1A0714D4E4
:10151000012916D82B6B2046984790B195F83430A6
:101520007BB98EB987B1A88D58B995F835304BB9CC
:1015300095F8360080F0010004E095F82E30002B7D
:10154000E6D00120BDE8F08184F0010010EA080037
:10155000F8D0A88D8307E7D595F82E0080F001001C
:10156000F0E700BFD004002110B5154C1BF066F861
:101570001BF07CFF0021E36B208F9847237E9BB9F3
:10158000104B228F93E8030010F0BEFFA36A188867
:1015900010F008FC636C94F8341094F840009847FD
:1015A000002384F8483010BD94E8070004F10C03D0
:1015B00083E80700044904F1190024F01FFADFE76B
:1015C000D0040021F4040021C9140001034B93F856
:1015D000483003B97047FFF7C7BF00BFD0040021F0
:1015E000F8B5254C4FF481730646A56AA4F854302B
:1015F00095F8932094F86030E76C03EB820095F83F
:1016000075102765FF2804D11EB995F874308B42F8
:1016100018D01AF0D1FC95F893303BB3606E1BF0F4
:1016200045F9616E206D1BF0E7FE96B1A88E1AF0A9
:10163000E5FB002095F874101BF070FA022384F883
:101640004830F8BD002AE9D138461BF02FF91BF0CD
:101650000DFF95F875302A8F033B012B8CBF0020BE
:101660002820104480B21BF0FFF9DFE7206D1BF04B
:101670001DF91BF0FBFED8E7D004002108B5094B8B
:1016800093F84820022A07D1DA7A42F00102DA728E
:10169000BDE80840FFF768BF40F2E6212720FEF7CB
:1016A0004BFF00BFD0040021F0B5194C83B0A56EEC
:1016B0004DB3A36D3BB3B4F85C3001F003012F468A
:1016C00006466B702B7823F003030B4307F8033BAC
:1016D0003846B4F85C20A16D1FF0BCFC0DF102028D
:1016E00001A9E06E2565A76520F0DFF9019820F0DB
:1016F000CAF90346B4F85C100122E06E336020F0B2
:101700006DF903B0F0BD40F2E7712720FEF714FF3A
:10171000D00400212DE9F04FBB4C85B0A76A94F8A6
:10172000603097F8932097F8741003EB8203FF2B37
:1017300005D120B997F875308B4200F02981FF2040
:101740001AF03AFCA36A002293F888808DF80920E9
:10175000ADF80A20B8F1050F00F2E681DFE818F0D5
:10176000CE00ED0032003200060006000DF10A0145
:1017700003A800930EF054FC002800F02B81039E78
:10178000009B002E00F0268101224FF0050A84F80C
:101790007420BDF80A2083F888A072BBA4F88820C2
:1017A000C4F8842093F889B093F88A20E667AAF1F8
:1017B000040A5FFA8AFABAF1010F00F2B28100213D
:1017C000097832E0B3F864100DF10902A06FADF8AA
:1017D0000A100DF10A01009320F04FF8009B064615
:1017E000002800F09981012293F888A084F87420E1
:1017F000BDF80A20002A00F0F980A4F88820BAF188
:10180000020F06F1030293F889B0E667C4F884205A
:1018100093F88A2000F09D80AAF1040A5FFA8AFA00
:10182000BAF1010F00F27D81F1780229009300F0F6
:10183000D680A06F019220F090F8D4F884100501B2
:1018400081460978EDB21B29DDE9003200F0038101
:101850000021E66F4FF0030A884633784FEACB0B3E
:101860009200B8F1010F0BF0080B03F0F30302F044
:10187000040243EA0B0343EA020323F0100345EAA0
:10188000030525F003054AEA05053570B4F88830EC
:1018900073704FF00203E26FA4F88030137823F0E6
:1018A000200341EA030111700AD1A36A197C5B7C11
:1018B000032903F01F0308BF002143EA811393703B
:1018C00097F8923084F835901BB1B4F88830002B2B
:1018D00056D1E06F1AF0EAFF1BF0C8FDF88E1AF03F
:1018E0008DFA012097F875101BF018F9012384F880
:1018F0008C3084F8483005B0BDE8F08F94F8732040
:1019000003A80DF10A010093A3F86420ADF80A20A2
:101910000EF086FB009B002841D0039E002E3ED097
:1019200001224FF0040A84F87420BDF80A2083F8DD
:1019300088A0002A7FF461AF30E7344AC24693F8AA
:1019400089B0E2670022A4F88820C4F8842093F8C4
:101950008A20A06F009220F000F8009A8146054688
:10196000C0B900920EF076FB494680F00109A84606
:10197000E66F5FFA89F9009A4FEA0915EDB26CE754
:10198000606E1AF093FFE16F606E1BF0F9FCA5E743
:101990003B46D8E60021E66F102588465DE793F8C0
:1019A000CF20AAB3002500214FF0010A174E93F86B
:1019B00089B093F88A20ADF80A10A4F88810C4F80A
:1019C000841083F888A0E667002DC2D0894645467A
:1019D000414642E740F21C512720FEF7ADFD0025AD
:1019E0004FF0030AA9462946A84636E7BAF1020F86
:1019F000A4F88820C4F8842093F889B093F88A204A
:101A0000E667A6D0D3E600BFD00400214005002140
:101A10000DF10A010DF10902A06F00931FF02DFFD7
:101A2000009B06460028BDD09DF809500DBBBDF8AF
:101A30000A20002A53D14FF0010AA4F88820C4F8E4
:101A4000842093F889B093F88A20E66783F888A009
:101A500084F874A07DE7012103F1100000924FF09B
:101A6000030A1AF0EBFA4FF001082021E66F009A02
:101A7000F3E60146A06F20F002F820F004F8D0F859
:101A800000B0D0F804A08146009B5BEA0A0233D183
:101A90000021BDF80A2089F8001089F8011089F8A2
:101AA000021089F8031089F8041089F8051089F8E4
:101AB000061089F80710002ABDD09DF8090070B102
:101AC000307800F0030001281FD04FF0020A83F89D
:101AD0009510012183F888A084F874108DE6002207
:101AE0004FF0030A3280B270012283F888A084F894
:101AF0007420BDF80A207DE600931CF0D1FF8345D9
:101B0000009B7AEB0101C3D24DE74FF0030A84F842
:101B1000740083F888A070E640F20D512720FEF78C
:101B20000BFD4FF0010A14E740F226512720FEF783
:101B300003FD00BF2DE9F041404C86B094F84830D9
:101B4000012B71D1A56A5FFA83F806460F4695F816
:101B50008430ABB995F88830042B25D095F89330B4
:101B6000002B3BD1012F06D12EB931463046FFF76D
:101B7000BDFC002853D006B0BDE8F041FFF7F4BC2F
:101B8000A38D0021042043F0040385F88410A3856D
:101B9000E36B984794F82430002BDBD095F888301D
:101BA00085F88580042BD9D1A38D0220244943F0E8
:101BB0000203A385E36B984794F82430002BCDD023
:101BC000D4F884301B78A3F10203B3FA83F35B09E2
:101BD00084F82E3095F89330002BC3D0A36A05F11A
:101BE000F80194F860C005F5847593F8750094F8D1
:101BF000243001381C1EC0B218BF0124032855E947
:101C0000062316D800940F4C205C0024039001207A
:101C1000CDE9015CCDE904401BF022FBA2E706B050
:101C2000BDE8F041FFF7DCBC40F62F012720FEF7AE
:101C300083FC40F22C410620FEF77EFCD0040021FC
:101C400054050021D43203012DE9F04FC34C8BB071
:101C5000002394F84820A56A022ACDE9083340F011
:101C60001C82236D03220F46064693F800805978A4
:101C7000134495F893004FEA281AA36508EA020373
:101C8000A4F85420A4F85C100693002E40F0848041
:101C9000002840F0808194F88F30013384F88F3031
:101CA000238F43F48063238795F87530033B012B22
:101CB00040F2DB800FF054F9002840F0D6804FF05E
:101CC0000008C146C34695F89230002B40F0E380EF
:101CD000A36E002B00F01481012303EA0A0384F8A9
:101CE00036303FB994F88F100120FFF7FFFB002832
:101CF00000F054811AF05EFFB9F1000F40F0288126
:101D00004FF00108218F11F0400106D1E36B402014
:101D10009847238F43F040032387BBF1000F09D07E
:101D200094F82430002B40F02B81B4F809300133B3
:101D3000A4F80930002E00F0E980B4F80530002244
:101D4000013384F88F20A4F80530854810F018F886
:101D5000089830B11FF097FE0022027229460FF05A
:101D60005FF8099B33B100221A720C2229460998A8
:101D70000FF024F8B8F1000F40F0E580238F1B0628
:101D800007D4E36B414680209847238F43F08003BC
:101D900023870BB0BDE8F08FC8F3C009002840F0DE
:101DA000BB80002940F00581002095F88930228F02
:101DB0000133A06642F40072DBB2228783EA9808FE
:101DC00018F0010840F0D08095F8881091B10139E1
:101DD00085F88930C9B2042900F26481614B0B4453
:101DE0001B79002B00F0C080022B00F0FA80032B3F
:101DF00000F03B81002194F8243085F888105BB115
:101E000095F8853043B1A38D102085F8851043F0F7
:101E10001003A385E36B984795F88A304FF0000BC9
:101E2000228F03F0010142F400628945228740F0CD
:101E3000A380B4F85C10002900F0BF800698411E12
:101E4000012940F2E0800133032885F88A3000F050
:101E5000BA80D5F8F0300133C5F8F030D5F8F43059
:101E600043F10003C5F8F43086E019F0DDFF0428E3
:101E70007FF425AFB4F85C804FF0000995F89230FC
:101E8000B8F11B0FCB4694BF4FF000084FF001088C
:101E9000002B3FF41DAF95F874C005F5847194F8DC
:101EA00024300CF1FF3C95F87E00B3FA83FE05F177
:101EB000F8035FFA8CFC80000793BCF1030F4FEA34
:101EC0005E1EC0B2D5E93A2300F2F180CDE900E10F
:101ED000DFF890E005F1F8011EF80CC04FF0010E9C
:101EE000CDF80CC04FF0000CCDE904CE4FF0FB0C48
:101EF000CDF808C01BF0B4F9A36E002B7FF4ECAE54
:101F0000B4F85C30B3FA83F35B09E6E6B4F8073063
:101F10000133A4F8073018E71BF0D0FA831EDBB2B8
:101F2000012B10D9B4F85C1000287FF43AAF0029D7
:101F30003FF43AAF95F88A3003F00103994538D160
:101F4000012384F84030FFF70FFB0BB0BDE8F08FA2
:101F5000069909A8FFF7A8FBD2E600BFD00400212C
:101F6000F4040021D432030195F88A30B34603F01B
:101F7000010189453FF45DAF4FF00008C146A2E67C
:101F8000B4F80720B4F805301343B5F8862013439E
:101F90003FF4D0AEC9E61BF0D1FA7CE6FFF7BAFBFE
:101FA000B9F1000F3FF4AEAE069909A8FFF77CFB2C
:101FB000A8E6E06E1FF0F2FCF7E6013385F88A3000
:101FC000069B032BD8D1A38D012042F480523F49B8
:101FD00043F0010385F884002287A385E36B9847CB
:101FE00037E708A9A06F1FF06AFC002869D0D5F870
:101FF000E8300133C5F8E830D5F8EC3043F10003A0
:10200000C5F8EC30F6E642F4805295F893802287CA
:1020100019F00AFF042894F88D3007D1B8F1000FA9
:102020000CBF1F221B22934228BF1346B4F85C202A
:102030009A4226D8A36E002B9ED094F88E80B8F1D9
:10204000000F25D1D5F8F030B1460133C5F8F03096
:1020500095F88A3003F1010385F88A30D5F8F43019
:1020600043F10003C5F8F4302DE60DF0E7FF18B397
:10207000A38D4146082043F00803A385E36B9847EE
:10208000B5E794F8343043F0100384F8343073E744
:10209000E36B0021202098476EE74FF40C61272066
:1020A000FEF74AFA40F2D6612720FEF745FA40F2E1
:1020B0002C410620FEF740FA40F201712720FEF77E
:1020C0003BFA40F2F7612720FEF736FA2805002197
:1020D00010B50C4C0C4A0D4994F84830116023B1EE
:1020E0004FF4A4712720FEF727FA03F0FF022276AF
:1020F00010F002FA0DF0B0FDE0640DF0B1FD606685
:1021000010BD00BFD0040021C0100021B824000180
:10211000074A10B592F8483013B10C24204610BD80
:1021200003F0FF04147610F0E7F9204610BD00BF5D
:10213000D00400212DE9F04389B0AF4C06AD9DF8E5
:10214000446085E8030094F848101098002940F096
:102150008381002B18BF002A00F07E81B0FA80F145
:102160004909002800F07881236304F124036064A6
:1021700084F8341084F88F1084F8401084F88C10A0
:10218000A185218784F8351084F8361084F87410FE
:1021900084F82E10E167C4F88410A4F88810216533
:1021A000A165A4F85C10E26384F88E6095E80300F2
:1021B00083E80300A56A19F073FF1BF057F995F93E
:1021C0007C001AF09BF8AE6A286A1AF09DF8304637
:1021D0001AF050FB95F8A4001AF0A0F8AB8E5D2B16
:1021E00002D9EB8E5D2B01D819F00EFE94F8246015
:1021F000002E76D024F0B9FC014695F87520012018
:10220000A4311AF0BFF97D4B18681AF039FBA36AA4
:10221000D5E9051293F87470E26693F88D20A167F2
:10222000A2F12A01012970D993F88E102A296CD0C5
:10223000253A012A40F2B980282900F09780032F1F
:1022400008BF042705F13C063946304623F083FCDD
:10225000394622F06EFDB5F84830024695F8751003
:102260003046934228BF134684F8733023F028FC8D
:1022700095F8751095F893700429B5F8506008BF6B
:10228000032122F056FD0FB9043080B2864228BFE8
:102290000646F6B284F88D600EF062FE002859D131
:1022A00094F8243084F86060002B46D195F8922091
:1022B000002A40F0AB800120FFF72CFA0023B5F88C
:1022C000860095F8A420A360C4E90033AB6F298889
:1022D0006080218022710BB101221A6009B0BDE833
:1022E000F08324F042FC95F87420454B01463046BB
:1022F000444E33F8123003F5FA73A6FB036301EB87
:1023000093118A311AF03EF97DE794F8242042BBFC
:1023100093F83232002B95D0FA1ED2B2012A4FD94F
:10232000DA1E012A4CD9012B18BF012F0CBF012343
:102330000023C3F10203DFB284E795F89330002B4A
:1023400040D10120FFF74CF9A36AD3F8D8011AF065
:1023500015FBB3E70EF00AFEB04238BF3046C6B2F6
:102360009EE793F8C232002BD6D16BE794F8242075
:10237000002A3FF464AF93F82E2193F86D30134098
:102380005A071DD413F001025FD19B077FF55AAFA6
:10239000FB1EDBB2012B13D9A7F10107B7FA87F7B0
:1023A0007F09C7F10207FFB24CE72829DED094F875
:1023B0002420002A3FF443AF93F82E315907E1D58A
:1023C00004273FE795F8750005F1F80105F58477D6
:1023D0000138C0B20328D5E93C2342D8CDE90176C3
:1023E000094E305C00260390012004960590009071
:1023F0001AF036FFA5E700BFD0040021C01000216D
:1024000058350301D34D6210D432030195F874603E
:1024100005F1F80195F87E0005F58472013E800013
:10242000F6B2C0B2032ED5E93A891AD80F4F0493F9
:102430004B46BE5D019242460396012605960096E4
:10244000FB2602961AF00CFF35E7FB1EDBB2022BCF
:102450002CBF17460427F5E64FF408712720FEF736
:102460006BF840F22C410620FEF766F8D4320301E7
:10247000FFF77AB8014B93F88C007047D004002125
:10248000054B1A8F12F4C06F03D093F8740000B19B
:102490007047C2F300307047D0040021024B93F81C
:1024A0003900C0F3C0007047D0040021014B93F8FD
:1024B0008F007047D00400217D160001491C0001E7
:1024C000351B0001CD15000106220B4603F8032B36
:1024D000B0F809C0C27AA1F803C09A70704700BF73
:1024E00040F2BD21322008B5FEF726F890F8DE2034
:1024F00012B902F0FF00704710B5363882B00C46B2
:1025000004F028FB18230420237002B010BD00BF84
:1025100070B500285BD0437A04460D46002B3BD0B3
:1025200000214089FEF7DAFC002855D00021008800
:10253000FEF7EAFC002854D194F8546094F8A630D1
:102540002BB194F8A7301E43002384F8A630204610
:1025500004F000FBB30730D113212B4604F109022C
:10256000293403F8031BD2F800C0103252F80C6C67
:10257000103352F8080C52F8041CA24243F810CC55
:1025800043F80C6C43F8080C43F8041CEBD11178A9
:1025900000221970AA7170BD036DD0F80E20C3F827
:1025A0000320428AA3F80720437B026D03F0FD035A
:1025B000003B18BF01239370BEE726F004060022FB
:1025C0002046114684F8546005F086F8C4E740F2CE
:1025D00006313220FDF7B0FF40F212313220FDF714
:1025E000ABFF40F215313220FDF7A6FF044B00226D
:1025F0001B68A3F8792183F87B2183F8702070474A
:102600006005002108B518F0CBFF034B18701AF0D5
:1026100015F8032008BD00BF1000002108B518F010
:10262000BFFF024B024601201A7008BD10000021B6
:1026300038B5114C20686C3003F0CEFB656803F0B0
:102640007BFB63682860186858B103F0A3FB68B18E
:102650001AF02CF900201AF007FA042263681A71A4
:1026600038BD40F2F5413220FDF766FF40F2F741F8
:102670003220FDF761FF00BF6005002108B518F0AA
:102680008FFF04490246044B48681A7003F01CFC93
:10269000012008BD6005002110000021F0B5524C5A
:1026A00000220E4683B02368054641F27070196D12
:1026B0005A72CA69B1F800C0A3F80AC0A2F57A7CC0
:1026C000844575D94948A0FB0202C2F38F221A84BF
:1026D0008A8C5A84CA8C9A844FF47F42DA844FF6EB
:1026E000FF721A85002D49D00121304622F020FFCB
:1026F0003278D209236893F8481009B1002A47D1EB
:10270000002159611983207B082859D003F10E025A
:1027100003F10D010DF024FF00285FD023685A7BE0
:1027200003F11A0742F002025A73002D3AD103F165
:10273000780002683A608288BA8093F95810186D60
:102740000EF0A8F820682A4923F04FF92368294998
:102750001A6D1088A3F8330003F12A0092F896202E
:1027600083F8352023F04AF90221206805F058F952
:1027700020686C3003F030FB03B0F0BDA068694600
:1027800022F09EFDA36868461A78C2F38012B1E772
:10279000427902F0C002402AB2D102685A618288AE
:1027A0001A83B0E70021304622F0C2FE2368C0E75A
:1027B0001148A0FB0202920902F5506292B286E72C
:1027C00093F87E109A6FB3F87C0059730021C3F818
:1027D0000E205882C3F81A10D983AEE741F2174190
:1027E0003220FDF7A9FE00BF600500215917B7D1BF
:1027F00011250001C9240001D34D6210F0B5534FDB
:1028000085B03B6893F8943073B3437804461B0754
:102810002AD5037843BB3B680E46D3F8900050306E
:1028200024F087F80546F8B93B68D3F89000837D1B
:10283000F3B963695A78837AB3EB121F14D16368D2
:10284000002B4BD07A685279082A18D100F10C017C
:10285000627CC07A22F0CDF930B13B68D3F8903079
:1028600000229A74012500E00025284605B0F0BD3D
:102870006168002932D07B685A79082A47D010460F
:102880000DF1070102AA0DF06BFE0646002858D094
:102890003B689DF80720D3F89000837D5BB36369A4
:1028A000104602A95A7812091FF0F6FA0028DCD067
:1028B0003B68BDF80C10D3F8902002981182D060CC
:1028C0009DF80710D3F89020D17263690121354635
:1028D0005B789174C3F303139372C6E7002EC1D0E3
:1028E000012EC1D17B68186803F092FD0028BBD08F
:1028F0007B681D7AB9E700F10C0102ABC07A22F0C7
:1029000078F90028B1D03B68D3F89020DDE76369FF
:10291000607C5A7812091FF0BFFA0028A4D06369BE
:1029200039685A78D1F89030C2F303129A7262680B
:102930001068D86092881A82D1F89030627CDA727E
:102940008EE740F6E6713220FDF7F6FD60050021C6
:1029500040F29B31322008B5FDF7EEFD10B504784A
:102960008CB004F00F0402A9224603F06FFD18F0AA
:1029700017FE234A042C107002D003200CB010BDA7
:10298000204C0399236891F800E093F878C0E6455D
:10299000F3D191F801E093F879C0E645EDD191F8D3
:1029A00002E093F87AC0E645E7D191F803E093F8A6
:1029B0007BC0E645E1D191F804E093F87CC0E645A0
:1029C000DBD191F805C093F87D108C45D5D193F8F3
:1029D0007E309DF819109942CFD17F280DD04FF04D
:1029E0007F0C009002A9606882F800C0237C227BE3
:1029F00003F096FC03200CB010BDFFF7A9FF00BF49
:102A000010000021600500210E4A536810B51979A5
:102A100002290CD9197908290ED8197952690A4B5B
:102A200092680B44BDE8104052F8233018474FF429
:102A3000A6513220FDF780FD41F2C1413220FDF761
:102A40007BFD00BF60050021FDFFFF3F38B5194D3C
:102A50006B681B79022B28D82B680446027C83F80C
:102A6000A4201A44C168996692F87C2183F87821E1
:102A70004268C3F88820037A022B0ED019F010FBAD
:102A80001AF022F818F024FE0B4819F0F9FE0B4852
:102A900019F0F0FE0A4819F037FC637C23B12B686B
:102AA0005B6E0BB101221A6038BD40F6081132206E
:102AB000FDF742FD600500211057000155555500F6
:102AC000D6BE898E70B53A4C064663681A79032AD9
:102AD00041D01A79042A3ED0226892F854209207F5
:102AE0003ED1A568002D4AD0236893F85430002BBE
:102AF0003BD03EB1284622F0FBFDD8B9284622F053
:102B000012FEB8B963681A79022A3DD91A79082ADF
:102B10003FD819796269274B52690B4452F8233028
:102B200098470C2826D86369DB68BDE8704053F8E5
:102B30002030184763681A79022A2FD91A79082A8F
:102B400031D81979284662691A4B12690B4452F838
:102B500023309847E5E7186803F01CF90546C1E7FC
:102B6000186803F019F90546BCE741F2CE3132206E
:102B7000FDF7E2FC41F2E1313220FDF7DDFC41F2EC
:102B8000C8313220FDF7D8FC41F2AE313220FDF7DA
:102B9000D3FC41F2AF313220FDF7CEFC41F24E3191
:102BA0003220FDF7C9FC41F24F313220FDF7C4FC61
:102BB00060050021FDFFFF3F70B5154D2C6894F8AE
:102BC0004830EBB16FF00043D4E920129A4208BFBD
:102BD000B1F1FF3F14D01BF003FED4E92023904253
:102BE00099410DD32E6896F8483053B90DF0B2FCD8
:102BF00004461BF0F5FD074BE4FB0301C6E9200189
:102C000070BD01200DF090FD0028F9D02E68EDE791
:102C10006005002140420F001B4B2DE9F04793F95E
:102C2000008084B0B8F17F0F2CD0184C7F228146F1
:102C30000F4666681A703379032B1AD03379062B46
:102C400014BF4FF0010A4FF0030A236803F1420555
:102C500019F0EAF800903A462B4649463046CDE94D
:102C6000028A257B019503F07BF928B904B0BDE801
:102C7000F0874FF0000AE8E7606804B0BDE8F0476D
:102C800003F0E2B8FFF764FE1000002160050021A8
:102C900038B505460C460DF035F8420704D4A37844
:102CA00003F0E003402B0DD00DF02CF8830704D483
:102CB000A37803F0E003202B04D0237803F03F0334
:102CC000242B01D9002038BD19F0B4F894F9002064
:102CD0006378002AA27802F01F0CB4BF4FF49671FB
:102CE0001E2143EA0C2301FB03F3191AB1F5877F78
:102CF000E8D39842E6D80648294623880068A0F819
:102D0000793180F87B21BDE8384003F0E9BF00BF8E
:102D1000600500212DE9F047334F84B0D7F80480D7
:102D200098F80630002B4DD03D6804460E4695F8C5
:102D3000953033B90378002B14BF0223012385F8A3
:102D4000953098F80430062BDAB23FD0072A0CBF32
:102D50004FF0020A4FF0010A244B93F90090B9F1A9
:102D60007F0F3ED07F221A7019F05EF8009005F1B7
:102D7000420332464046CDE9029A397B0191214611
:102D800003F0EEF8F0B16378DB0618D5A1690220F4
:102D9000FFF77EFFE8B100233A6882F89630636956
:102DA000DBB15978C1F3031182F8971059781B7879
:102DB00001F00F0143EA0123A2F8983003E078689C
:102DC00003F042F8002004B0BDE8F0874FF0030A9A
:102DD000C2E7786803F078F8F4E7FF2382F89730C9
:102DE000F1E7FFF7B5FD00BF6005002110000021ED
:102DF00010B504468AB018F0D3FB194A2378107036
:102E000003F00F03072B02D001200AB010BD2046AB
:102E1000694603F0C1FB684603F0A6FC9DF800304C
:102E2000002BF1D19DF80130DB07EDD50D4C019958
:102E300022689DF8110002F1780392F87E2021F0BB
:102E4000D8FE0028E0D020680121A03021F0DAFB74
:102E5000FF216846FFF75EFF0130C0B2D5E700BF33
:102E600010000021600500212DE9F04304468BB0DD
:102E700018F096FB434A2378107003F00F03082BD9
:102E800004D0012528460BB0BDE8F08369462046F2
:102E900003F014FB9DF80050002DF2D19DF8013095
:102EA00003F00303032BECD1374F3E6896F84D3007
:102EB0008BB396F84E807B7B8BBB4FF0000906F1FD
:102EC000780396F87E2001999DF8110021F091FE7B
:102ED00010B9B9F1000FD4D096F848203E6896F8A2
:102EE00041904236002A3CD19DF8120033460299A7
:102EF0004A4601281FD021F07CFE0028C1D0386846
:102F00000121A03021F07EFB7B7B9BBB2146012071
:102F1000FFF7C4FBB6E77B6893F80580CBE721F0A9
:102F2000ACFE0828C9D0A0EB08093873B9FA89F9B2
:102F30004FEA5919C3E74E7921F05BFE80F0010397
:102F400006F0C006DBB2A6F14006B6FA86F67609B0
:102F5000002BD2D0002ED0D0029940460DF018FCA4
:102F6000CBE740460DF04EFC0028BDD006464FF0A2
:102F70000109B9E719F0A8FD18F0AAFB00237B733B
:102F8000C4E700BF10000021600500214378F0B5C0
:102F90000446580687B07AD4227803F01F0352EA19
:102FA000032274D008466188052970D9237A6268A3
:102FB000C3F3040352EA030569D0384D2D68002D90
:102FC00067D0002865D0A847002860D0344E012182
:102FD000237A3068C3F304036268D0F890506976AE
:102FE000110A00208DF8143041EA036162F30700F2
:102FF00061F30F20110C120E41EA034142EA032251
:1030000061F3174004A962F31F60049005F11E00EC
:1030100021F0E9FF628840F2E24303FB02F2637BA6
:10302000C5F8A020D4F809202A60A27B43EA022335
:10303000E27B43EA0243227A6B60C2F34212238AA4
:1030400085F8BA20013B3268A5F88A3092F87831C9
:10305000EB75637825789A0603F01F034CBF4FF495
:1030600096721E2245EA0325174602FB05F518F065
:1030700059FF0B46218A024630680631D0F890008D
:1030800089B201975030009502910EF0F5FF07B01C
:10309000F0BD034E3168D1F89050A1E7CC1000216B
:1030A000600500212DE9F04FDFF8DCA0934698463B
:1030B000827CDAF8003083B0012A044693F8485045
:1030C000894685F001053DD0002637469AF80D2047
:1030D0003AB393F8542052072DD46368B3B1DAF8A9
:1030E00004305B79082B18D0184601930DF046F98F
:1030F0002843C5B2B7B19AF80F20019B6AB321F0FB
:10310000C6FD002307468AF80F300BE0DAF80430DA
:10311000186803F07DF90028E1D11FB19AF80E106C
:1031200009B300278BF8007089F8006088F8005018
:1031300003B0BDE8F08F93F84D20002ACDD093F86E
:103140004E30CFE78268567906F0C006A6F14006F9
:10315000B6FA86F676093746B8E7A16818460DF044
:1031600017FB0746DEE7A0680DF012FA07468AF85B
:103170000D000028D5D021F080FD0828D1D0DAF844
:1031800004305871CEE700BF600500212DE9F04FF3
:10319000044687B006290AD8DFE801F0522E0F094D
:1031A00009090400B34D68688379002B72D119F0C6
:1031B00045FA032007B0BDE8F08F19F03FFAAD4A99
:1031C000136893F854108F07F3D050688179002961
:1031D000EFD0A94D95F900107F2900F01C820291D3
:1031E0002146127B7F2442330192FF220092022269
:1031F0002C7002F0EDFFDCE79E4DA27C2968686828
:10320000012A91F8483090F806A090F8079083F0D2
:1032100001035BD00027BB4691F854C01CF00406A4
:1032200000F0D78091F84D60002E5AD091F84E8072
:10323000B8F1080F5BD191F84180002640466FE05D
:103240008C4DD5E9003093F8542057071AD5C27930
:10325000002A00F0C680626893F85B1016788E42F0
:1032600000F0328193F85620012A00F0518193F842
:103270004E30082B03D042799A4200F0498119F070
:10328000DDF968688379002B40F0AF80C379002BAB
:103290008FD18CE72B6893F85420960740F1CF80AC
:1032A000754A92F900107F2900F0B58102912146FC
:1032B0002C7B42330194FF2400947F241470062257
:1032C00002F086FF002309202B7473E7A268577968
:1032D00007F0C007A7F14007B7FA87F77F09BB4699
:1032E0009AE790F80580B8F1080F00F0DD804046BD
:1032F00004930DF043F8049B0590BBF1000F40F0E0
:10330000388129685E4691F854C091F841800CF0EC
:103310000402404692B3059A43EA020B5FFA8BF32C
:10332000626891F85BC092F800E0E64500F0F38037
:103330004FF0000B6A685279082A00F0308191F84A
:103340004EC0ACEB0202B2FA82F252090492002E95
:1033500000F0B680B9F1000F0BD091F85630012B78
:1033600000F0D6804E4623B9049B53EA0B0B40F085
:10337000CF8019F063F92B6893F854C01CF0030F49
:103380003FF417AF19F05AF9BAF1000F3FF411AF3B
:103390002868A36800F14201A27C90F8410021F066
:1033A00028FC16B9002800F01481334E96F900303D
:1033B0007F2B00F03081029321462B7B7F2401225A
:1033C000CDE90083D5E900303470423302F000FFCC
:1033D000EFE690F80580B8F1080F88D191F84180A8
:1033E000CCE78379002B3FF4E2AE2B6893F85420AE
:1033F000960743D4D0077FF5DCAE510700F1E68095
:103400001D4B93F900207F2A00F005817F20029256
:103410002A7B21461870FF202B6801920022009021
:103420004233686802F0D4FE03206B68DA79002A20
:103430007FF4C0AE9B79002B7FF4BCAEB7E6D1071A
:103440007FF5B5AE530700F1BE800B4B93F900201A
:103450007F2A00F0E0807F20029221462A7B1870AC
:10346000FF24D5E90030019206224233009402F095
:10347000AFFE9EE66005002110000021674A92F928
:1034800000107F2900F0C780029121462C7B423337
:103490000194FF2400947F241470002202F098FE0F
:1034A000012309202B74C0E7626891F85B0092F851
:1034B00000C091F8418084452CD0B3464046049624
:1034C000002B6FD1002654E7567893F85C108E429B
:1034D0007FF4C8AE967893F85D108E427FF4C2AE4A
:1034E000D67893F85E108E427FF4BCAE167993F8CE
:1034F0005F108E427FF4B6AE517993F8602091420E
:103500007FF4B0AE617C93F85A2091427FF4AAAE6A
:103510000A204FE6404692F801E091F85CC0E6458B
:103520007FF406AF92F802E091F85DC0E6457FF4C3
:10353000FFAE92F803E091F85EC0E6457FF4F8AE86
:1035400092F804E091F85FC0E6457FF4F1AE92F89E
:1035500005C091F8602094457FF4EAAE94F811B06C
:1035600091F85A20ABEB0202D2F1000B4BEB020BAD
:10357000E0E6A168404604930DF00AF92968064682
:10358000049B91F854C091F841000CF00402002E05
:103590003CD040F00208002A7FF4BDAEEEE60022E7
:1035A0000492D4E64231A368A27C21F022FB0028D9
:1035B00088D0B9F1000F85D02B6893F85630012BD5
:1035C000A6D00026CFE619F039F83EE719F036F814
:1035D00016E72B6893F85520023A012A3FF6E9AD29
:1035E000002F3FF4E6AD0D4E96F900207F2A12D051
:1035F000029221462A7B7F24686842330192FE2290
:1036000000920122347002F0E3FDD2E58046002AE8
:103610007FF481AEB2E6FFF79BF900BF10000021F6
:1036200008B5054B586802F00FFC17F0B9FF034BC3
:10363000024601201A7008BD60050021100000211B
:103640002DE9F843724D002207468946AB68D5F84C
:10365000008018461A8019F05FF9002800F0B18048
:10366000AC68032F0646237800F0B78023F02F03C1
:10367000296843EA491343F005032370222363704A
:103680000B6D1B6AC4F80F300A6D936AE374180A55
:103690001B0C2075637592F87EC0108ED36ABCF146
:1036A000000F40F0A280DFF86CC1ACFB00E0ACFB87
:1036B00003C3800A9B0AE375C3F30723A07541F295
:1036C00070702376D369A3F57A7C844540F29880A4
:1036D0005048A0FB0303C3F38F23002063F30700CC
:1036E0001B0A63F30F20938C63F317401B0A63F3E9
:1036F0001F60C4F81900D38C63771B0AA377D2F834
:103700009730C4F81F3092F89B3094F8242084F846
:1037100023300B6D22F01F0293F8A23003F01F0339
:10372000134384F824300CF013FB94F8243003F096
:103730001F0343EA401384F82430AC68D8F878308B
:103740002046C4F80930B8F87C30A4F80D3098F859
:103750007E1021F0C9FD2B6893F8482003F142093F
:1037600093F84180A2B393F85420520732D593F8CE
:103770004D207AB393F84E000DF044F8044638B368
:103780004FF0010823684146A868C0F80330A388B9
:10379000A0F8073021F09BFD1F4BD3F8043173B91B
:1037A000052F12D12B68304621681A6DC2F80A1015
:1037B000A188D1811B6D83F80980BDE8F88318F0DA
:1037C0003DFF002603200DF019FB3046BDE8F883CD
:1037D0004C46D7E76B685879CEE723F00F0343F0E8
:1037E000030323700C236370A8E7DFF830C0ACFB41
:1037F00000E0ACFB033CC0F347104FEA5C135AE710
:103800000748A0FB03039B0903F550639BB264E7E1
:10381000600500215917B7D1008000411F85EB5189
:10382000D34D621038B5154C236893F854309B077C
:1038300018D1A568E5B12368FF2093F8781118F036
:10384000BBFB284619F032F8236893F87831033B24
:10385000012B94BF2820002019F006F90722636885
:103860001A7138BD6368186802F096FA0546E1E7F8
:1038700040F21C513220FCF75FFE00BF60050021C2
:1038800038B51E4C0E20236893F8781118F094FB7D
:10389000236893F854309B0724D1A56845B3284684
:1038A00019F004F8236893F87831033B012B94BF97
:1038B0002820002019F0D8F82368681D93F8785163
:1038C0000CF094FE607348B1033D012D8CBF502570
:1038D000552517F0E1FE284619F0EAF8636808223A
:1038E0001A7138BD6368186802F056FA0546D5E7C4
:1038F00040F209513220FCF71FFE00BF6005002195
:1039000070B50D4D0222D5E900031A7103F0FCFEDB
:1039100000B170BD2E68044606F16C0002F0D4FAC6
:103920002868A6F8794186F87B4186F87040BDE8A2
:10393000704004F04BB800BF6005002110B50A4C80
:1039400017F02EFE094A637B10701BB918F076FE43
:10395000032010BD19F0B8F817F0BAFE0023637306
:1039600018F06CFE032010BD60050021100000213E
:1039700070B52D4C0546236893F87B215F2A2CD81F
:1039800051092A4A565C93F8790100F03F0018F07B
:10399000C5FC236893F9580018F0B0FCFDB123680A
:1039A00032460120996E18F0EDFD2368314693F8F8
:1039B0009630022B14BFFF20402018F0FDFA236838
:1039C00093F85420920710D193F89530A568B3B1BD
:1039D0002846BDE8704018F069BF0026D3E732469C
:1039E0008221012018F0CEFDDFE76368186802F03D
:1039F000D3F92368054693F89530002BE8D1681D6C
:103A00000CF0F4FD60730028E2D0042E14BF5024A3
:103A1000552417F041FE204619F04AF82846BDE823
:103A2000704018F043BF00BF60050021E032030181
:103A3000F0B52E4C83B00646236893F87B215F2AAD
:103A400030D851092A4A575C9A6E7ABBD3F888005D
:103A500018F094FF256895F854309A0703D595F827
:103A60009620022A33D05B072DD46368186816BBF2
:103A700002F0CEFC63680646186802F0CFFC0246EE
:103A800005F19A002568314695F8963095F87851F9
:103A9000009502F013FE2268002382F87871A37368
:103AA00003B0F0BD9A6E0027002ACFD00120FFF7A7
:103AB0005FFF2368CAE702F0BDFC014605F19A00EA
:103AC00002F0F0FDE7E795F89630012BCDD1042FF9
:103AD00005D03946002019F021F82568C5E795F88A
:103AE0005930012B0CBF03210421F3E760050021AD
:103AF000E032030110B50B4C637B63B9A168002071
:103B0000FEF7CCFD23680022A3F8792183F87B21FE
:103B100083F8702010BD18F0D7FF17F0D9FD0023EF
:103B20006373EBE76005002110B50E4C637B8BB926
:103B3000206801216268002311710246A0F87931E2
:103B40006C3082F87B3102F047F92068BDE8104004
:103B500003F03CBF18F0B8FF17F0BAFD0023637301
:103B6000E6E700BF6005002107292DE9F04F044674
:103B700087B00D461646406852D1002808BF002A7B
:103B80000CBF4FF0010A4FF0000A72D0002800F07D
:103B9000D580627C012A00F0B180AB4F7B685879F8
:103BA000082848D00DF10F0104AA0CF0D9FC002818
:103BB00000F05E8104A99DF80F0022F0B2FC82465D
:103BC000D7E9000890F8543013F0030240F08880E1
:103BD0005B0788F8062043D4002388F807309B4B06
:103BE0001B6833B131462046984788F80800D7F85B
:103BF0000480636843B1617C3A6882F87E1019687A
:103C000091679B88A2F87C3098F80830002B00F070
:103C10003481A06808B1072D4FD007B0BDE8F08F00
:103C2000002800F08880627C874F012A79684FD095
:103C300048790828B6D16168607C22F072FC7A6805
:103C4000824661680532607C0CF0C0FBD7F80480C6
:103C500003460028B4D1A8F8060088F80800D8E781
:103C6000062D90F84D9000F2B28049EA0A00C3B2E6
:103C7000B3E7754FD7E9001091F8543013F0030201
:103C800018BF012213F00403827105D02378A3F139
:103C90000103B3FA83F35B09C37191F89430002BED
:103CA000BBD03B68D3F89000503022F042FE002891
:103CB000B3D17B6801221A72AFE798F80510082982
:103CC000ABD0002BA9D00CF081FC0123FB73A4E73F
:103CD000437903F0C003402BAAD17B7BFBB9A7E754
:103CE000062D90F84C904FD849EA0A095A0788F8EF
:103CF00006907FF571AF90F84D90B6E7427902F0EB
:103D0000C002402A7FF449AF4F4F7A7B002A3FF42C
:103D100045AF26B93A6892F87811012960D0D7F8F2
:103D2000048020F0AAFF7B6888F8050058790123F9
:103D30003873BB7334E78246434F41E7424FD7E9BC
:103D4000000890F854309A0745D1D14613F0040387
:103D500088F806903FF441AF90F84D90311E98F8E6
:103D600007B018BF0121BBF1010F02D000297FF479
:103D700033AF6368002B7FF478AF002E3DD16378BA
:103D8000D9063AD5012328E7082D03D9002388F85E
:103D9000063021E798F806B0311E18BF0121BBF1AB
:103DA000010F0DD061B14FF0000913F0040388F842
:103DB00006903FF412AF90F84D9098F807B0D2E714
:103DC00062689AB149EA0A095FFA89F9BEE7082DE3
:103DD0003FF602AFC2E790F84C9098F806B0DBE7E8
:103DE0000CF0D6FB7873002899D1D7E6A6B9627893
:103DF000D20611D54FF00109D7E7D8F8000002F03C
:103E000007FB10B1BBF1000F02D1B9F1000F14D0C4
:103E1000D7F804800123E0E6D8F80000019102F011
:103E2000F7FA1BEA000001991CD1B9F1000F0FD07D
:103E3000D7E9000890F85430B7E70CF0C1FAD7F88A
:103E400004800346C9E600BF60050021C8100021B8
:103E500001910CF0B5FA81460199D7E9000890F874
:103E60005430A2E78146D7E9000890F854309CE727
:103E700040F6BA313220FCF75FFBB8F80630003B61
:103E800018BF0123C5E600BF10B5104C17F088FB22
:103E90000F4A637B10708BB9206801216268002390
:103EA00011710246A0F879316C3082F87B3101F053
:103EB00093FF2068BDE8104003F088BD18F004FEB1
:103EC00017F006FC00236373E6E700BF60050021DE
:103ED0001000002110B50F4C606801F0F5FF637B06
:103EE0008BB9206801216268002311710246A0F895
:103EF00079316C3082F87B3101F06EFF2068BDE8CB
:103F0000104003F063BD18F0DFFD17F0E1FB002364
:103F10006373E6E76005002110B5114C606801F09D
:103F2000D3FF17F03DFB0F4A637B10708BB92068FD
:103F300001216268002311710246A0F879316C30CA
:103F400082F87B3101F048FF2068BDE8104003F0A3
:103F50003DBD18F0B9FD17F0BBFB00236373E6E726
:103F6000600500211000002110B5134C17F018FB5C
:103F7000124A00212368107003F1A00020F042FBD8
:103F8000637B8BB9206801216268002311710246AE
:103F9000A0F879316C3082F87B3101F01DFF206888
:103FA000BDE8104003F012BD18F08EFD17F090FB35
:103FB00000236373E6E700BF6005002110000021C5
:103FC00010B5144C606801F03FFF17F0E9FA0246A3
:103FD00020680021104BA0301A7020F013FB637B87
:103FE0008BB9206801216268002311710246A0F894
:103FF00079316C3082F87B3101F0EEFE2068BDE84B
:10400000104003F0E3BC18F05FFD17F061FB0023E4
:104010006373E6E7600500211000002110B5002160
:104020000320164CFFF70CFB20B10321206802F09F
:1040300057FE98B9637BCBB92068012162680023E1
:1040400011710246A0F879316C3082F87B3101F0B1
:10405000C3FE2068BDE8104003F0B8BC012108464B
:1040600018F05CFD092263681A7110BD18F02CFD70
:1040700017F02EFB00236373DEE700BF600500210D
:1040800010B51C4C0C220121D4E900031A7103F075
:10409000C7FC00210520FFF7D3FA20B106212068D4
:1040A00002F01EFE98B9637BEBB9206801216268BB
:1040B000002311710246A0F879316C3082F87B310F
:1040C00001F08AFE2068BDE8104003F07FBC236841
:1040D000012093F8781118F021FD236801221B6D4F
:1040E00083F8962010BD18F0EFFC17F0F1FA0023CA
:1040F0006373DAE76005002170B5244C236893F8F8
:104100007B215F2A29D85109214A565C9A6E42BB0D
:10411000D3F8880018F032FC256895F854309A07D7
:1041200003D595F89620022A20D05B0703D595F891
:104130009630012B1AD06368186802F07BF90146AB
:1041400005F19A0002F0AEFA0022D4E90013A2733E
:10415000062281F878611A7170BD9A6E0026002AD5
:10416000D6D00120FFF704FC2368D1E7042E05D048
:104170003146002018F0D2FC2568DCE795F859306C
:10418000012B0CBF03210421F3E700BF60050021D0
:10419000E032030138B5234C6368186801F0FAFD7A
:1041A00000283AD063680A22054600211A71206867
:1041B00003F036FC22682B780520126D92F8965099
:1041C00005EA531505F001052946FFF739FA48B10C
:1041D0000421206802F084FD20B123681B6D83F860
:1041E000965038BD637B8BB920680121626800233B
:1041F00011710246A0F879316C3082F87B3101F000
:10420000EBFD2068BDE8384003F0E0BB18F05CFC33
:1042100017F05EFA00236373E6E740F26151322043
:10422000FCF78AF96005002138B5174C0521206894
:1042300002F056FD48B12368012093F8781118F078
:104240006DFC0B2263681A7138BD0546606801F089
:104250003BFE637B8BB920680121626800231171EA
:104260000246A0F879316C3082F87B3101F0B4FD60
:104270002068BDE8384003F0A9BB18F025FC17F012
:1042800027FA6573E7E700BF60050021F0B52B4C06
:1042900083B0236893F87B215F2A37D85109284AD5
:1042A000575C9A6E002A35D1D3F8880018F066FB67
:1042B000256895F854309A0703D595F89620022A78
:1042C0002DD05B0703D595F89630012B27D0636876
:1042D000186802F09DF863680646186802F09EF8B8
:1042E000024605F19A002568314695F8963095F812
:1042F0007851009502F0E2F90022D4E90013A2738C
:10430000052281F878711A7103B0F0BD9A6E00270A
:10431000002AC9D00120FFF72BFB2368C4E7042F34
:1043200005D03946002018F0F9FB2568CFE795F84D
:104330005930012B0CBF03210421F3E76005002154
:10434000E032030110B501291D4C636810D178B922
:104350001A79082A2AD91A790C2A2CD8197962696B
:10436000184B52680B44BDE8104052F823301847F0
:10437000184601F0A9FD637B8BB9206801216268B2
:10438000002311710246A0F879316C3082F87B313C
:1043900001F022FD2068BDE8104003F017BB18F0C3
:1043A00093FB17F095F900236373E6E741F2904120
:1043B0003220FCF7C1F841F291413220FCF7BCF801
:1043C00060050021F7FFFF3FF0B55A4C83B020682D
:1043D0006C3001F001FD656801F0AEFC6368286097
:1043E0001868002800F09C8001F0D4FC05460028E5
:1043F00000F09B80236893F8A630002B48D1D4E9C5
:10440000000290F8A430034493F87C7180F878712E
:10441000137913B11379012B4BD190F8A520464B9A
:104420001344187917F07AFF236893F8A4201344F3
:1044300093F87C61022E3AD04DD8012E4ED101F076
:1044400075FC314617F0B8FD284618F02FFA3146B2
:10445000012017F079FF012F31D1E81C0CF0C6F8CC
:10446000607328B1402517F017F9284618F020FB93
:104470006268082100232068517121730321D380D1
:104480001372E38180F895302374117103B0F0BD8D
:10449000236893F8542093F8A700196D0243C3F8DA
:1044A000101183F85420002283F8A620A7E70D20DE
:1044B000C7E7002102F014FCA8B12068ADE7681D31
:1044C0000CF094F860730028D2D0033F012F8CBF0A
:1044D00050255525C7E7F31E012BB0D940F605013D
:1044E0003220FCF729F8637B93B9206801216268C8
:1044F000002311710246A0F879316C3082F87B31CB
:1045000001F06AFC206803B0BDE8F04003F05EBA39
:10451000019018F0D9FA17F0DBF801986073E4E71E
:1045200040F252413220FCF707F840F25441322069
:10453000FCF702F860050021E032030108B517F02E
:104540002FF8044B187018F079F8BDE80840FFF711
:104550003BBF00BF1000002110B50C4C17F020F835
:104560000B4A637B10702BB918F068F8BDE8104057
:10457000FFF72ABF18F0A8FA17F0AAF80023637310
:1045800018F05CF8BDE81040FFF71EBF6005002181
:104590001000002110B50446FEF758FA237A032BC9
:1045A0004AD0012B51D039D82F4C304A216891F88C
:1045B000A53091F84B000133A2FB03CE0EF4FF7C33
:1045C0000CEB5E0CA3EB0C0340FA03FC1CF0010F98
:1045D00013D10133A2FB03CE2EF0010C0CEB5E0CC9
:1045E000A3EB0C031841C00707D40133A2FB03025D
:1045F00022F0010000EB52029B1ADBB281F8A530D9
:1046000091F9580017F07AFE2368002283F895206C
:10461000FFF7DAFEBDE81040FEF7CEBA023B012BF1
:1046200009D8114C236893F8950088B9FFF700FA70
:10463000052263681A7110BD0B4B1B68986E70B928
:10464000FFF796F9237A012BADD1074C2168D7E704
:104650000120FFF7EDF9062263681A7110BD4FF4CF
:1046600015613220FBF768FF60050021ABAAAAAAFA
:104670002DE9F047AE4F86B0D7F8008098F8573054
:10468000A3B17E680446B379A3B12578012D1AD071
:10469000022D5CD055B998F85420910706D0002B14
:1046A00040F08980337A002B40F08580032006B0EB
:1046B000BDE8F087F279002AE7D1327A002AF5D0F6
:1046C0002578012DE4D198F878216378022A00F04A
:1046D000EA8003F01803182BE8D198F854305A07F1
:1046E00000F1E780934B93F900507F2D00F0538148
:1046F0007F221A7017F098FB00210090029508F1B4
:1047000042030391FF22397B30460191214601F09B
:1047100027FC0028CAD0A1690120FEF7B9FA0028B9
:10472000C4D001233A6882F896306369002B3ED0EA
:104730005978C1F3031182F8971059781B7801F06A
:104740000F0143EA0123A2F898300220AFE798F85E
:1047500054309B07AAD0637803F01803182BA5D117
:10476000744B93F90090B9F17F0F00F014817F2210
:104770001A7017F059FB00220090CDF8089008F14C
:104780004203039230463A7B21460192FF2201F018
:10479000E7FB00288AD0A1690120FEF779FA0028FA
:1047A00084D03A6882F896506369002BC0D1FF2309
:1047B00082F89730C9E7637813F0100FC3F300163F
:1047C0000CBF012208229A437FF470AF0023A26835
:1047D0008DF815308DF81630002A00F0A4800DF108
:1047E00017030DF116010DF115022046FEF75AFCD4
:1047F00039689DF8153091F84190002B40F0C18048
:104800004231A368A27C484620F0F3F968B93B68BE
:1048100093F85530023B012B3FF648AF9DF8163018
:10482000002B3FF443AF4FF0FE09424B93F9008059
:10483000002E00F08180B8F17F0F00F0AC807F2265
:104840001A70D7E9003603F1420517F0EDFACDF8FA
:1048500008804A462B460025009030460395397B58
:104860000191214601F07CFB00283FF41FAFA169B4
:104870000120FEF70DFA00283FF418AF3B6883F8DB
:1048800096506269002A00F082805178C1F30311CA
:1048900083F897105178127801F00F0142EA012253
:1048A000A3F8982051E703F01903192B7FF4FEAE0B
:1048B00013E763686BB9A368002B7FF4F7AEA369B5
:1048C0009B781F2B24D898F84930002B7FF40AAF2F
:1048D000ECE608F15B0398F85A2008F1780198F8A3
:1048E0007E0020F086F97E68D7F80080737998F80A
:1048F0005620082B03D098F84E10994244D0012A34
:10490000D9D0002A7FF4D2AE00283FF4CFAED2E750
:1049100003F0E003402B7FF4E5AE98F84A30002B1B
:104920007FF4E0AEC2E64FF0FF098DF817207CE778
:104930006005002110000021B8F17F0F2BD07E68A8
:104940007F221A703379032B04D03379062B14BFDE
:10495000012503253B6803F1420A17F065FA214659
:10496000009053464A463046CDE902853C7B01948F
:1049700001F0F6FA00283FF499AE786801F064FA85
:1049800094E649F0020950E7012A94D98EE6FF2205
:1049900083F89720D9E6FDF7DBFF00BF30B5054669
:1049A0008BB016F0FDFD3E4B2C780246694628463A
:1049B00004F00F041A703B4D01F0EEFD072C2B683C
:1049C0003DD093F8542012F0060210D121466846DB
:1049D000FFF7CAF82B6893F87831042B1BD8022B09
:1049E00054D903246B7BDBB920460BB030BD93F860
:1049F000A420134493F87C21012A4CD000222146A4
:104A00006846FFF7B1F82B6893F87831012B10D086
:104A1000023B022BE5D941F249213220FBF78CFD04
:104A200018F052F816F054FE002320466B730BB0BA
:104A300030BD062C1BD018D917F000FED1E793F833
:104A40007811684601F0E0FD002221466846FFF734
:104A50008BF82B6893F87831042BDCD8022B0CD917
:104A60006846FFF705FE0446BCE7022CE4D8214661
:104A70006846FEF78BFB0446B4E7012BF0D0022B0F
:104A8000C9D19DF80030012BABD1E9E7012BD0D083
:104A9000022BA6D0BFE79621002017F089FDADE7D5
:104AA00010000021600500212DE9F04F93B0AD4CBE
:104AB0000D4608A901F070FD206808A99A3001F0A0
:104AC00025FE23689DF8201093F89620914205D189
:104AD000032D17D09DF82120120766D4606801F0DD
:104AE000F3F90125637B1BB9284613B0BDE8F08FAD
:104AF00017F0EAFF16F0ECFD00232846637313B0AD
:104B0000BDE8F08F93F89720FF2AE3D108A82A4642
:104B10000721FFF729F86068C38813B9037A002BCF
:104B2000DDD000230A9F8DF81D308DF81E308DF8E2
:104B30001F30002F4AD00DF11F030DF11D020DF1A2
:104B40001E0108A8FEF7AEFA23689DF81D8093F8B1
:104B500041509DF8206045EA48059DF81E90012EC1
:104B60009DF81F70EDB238D0022E00F0AA80002E02
:104B7000B4D1206890F854309E07B2D09DF821300F
:104B8000990700F1D180FF2563681B7A33B1764B1A
:104B90001B681BB10F9808B111999847294608A8BE
:104BA000FEF7B8F8451CEDB29CE70D9993F8970015
:104BB0004A78B0EB121F91D1097802F00F02B3F8D6
:104BC000983041EA02229A4288D19FE79DF82060FE
:104BD000B946B846FF25012EC6D19DF82130206880
:104BE00003F0090290F89A10092A05D000293FF431
:104BF00078AF1B077FF575AF90F85430D4F804A058
:104C00005A0713D59AF8073083B1002900F00D81B7
:104C10000A9B1BB1B8F1000F00F05B81A0301FF0C0
:104C200013FD002840F0B681D4F804A09AF80630AD
:104C3000002B3FF456AF276897F854309B073FF49A
:104C400050AF9DF8213013F0020300F0CA80B8F194
:104C5000000F0AD10A9B07F142019DF8322097F814
:104C600041001FF0C6FF00284ED0404B93F9009042
:104C7000B9F17F0F00F09481D4F804807F221A707C
:104C800098F80430032B00F0F28098F80430062BDB
:104C900008BF0326236803F1420717F0C5F82A4628
:104CA00000903B4608A94046CDE90296257B019538
:104CB00001F056F900283FF414AF606801F0C4F821
:104CC0000FE7266896F854309A073FF40AAFD4F8F5
:104CD00004A09AF80620002A3FF403AF9DF8212093
:104CE00002F0090109297FF4FCAE13F0020B02F077
:104CF00002013DD0002900F0BC80B8F1000F40F067
:104D00002181002F40F01281236893F85530023B37
:104D1000012B3FF6E6AEB9F1000F3FF4E2AEFE2103
:104D200008A8FDF779FFDCE6B8F1000F7FF42CAF9F
:104D300000F142010A9B9DF8322090F841001FF0DB
:104D400058FF00287FF420AF236893F85530023BCA
:104D5000012B3FF6C6AEB9F1000F3FF4C2AEFE25FF
:104D600012E700BF60050021C410002110000021DF
:104D7000002900F0BE80B8F1000F0AD10A9B06F1AD
:104D800042019DF8322096F841001FF032FF0028C2
:104D9000BAD0844B93F90080B8F17F0F00F0008106
:104DA00067687F221A703B79032B06D03B79062B6C
:104DB00014BF4FF0010B4FF0030B236803F14206C1
:104DC00017F032F82A460090334608A93846CDE954
:104DD000028B257B019501F0C3F800283FF481AEDA
:104DE0006BE7704A92F900507F2D00F0D9807F2147
:104DF00011709AF80420032A00F096809AF8043083
:104E0000062B08BF032617F00FF807F142030090A6
:104E1000CDE90256257BFF2208A95046019501F0F5
:104E20009FF800283FF45DAE47E700F15B0390F880
:104E30005A2000F1780190F87E001FF0DAFE034658
:104E4000D4E9000A9AF8051090F85620082904D0F1
:104E500090F84EC08C4500F09F80012A3FF4D8AEF8
:104E6000002A7FF4E3AE002B3FF4E0AED0E600264C
:104E700010E74C4B93F90080B8F17F0F00F0908061
:104E80007F2203201A70FEF7DBFB23680646D4F866
:104E9000049003F1420716F0C7FF2A46012500904F
:104EA0003B46CDF8088008A903954846257B019527
:104EB00001F056F8002E3FF411AE00283FF40EAE7C
:104EC0002068A0301FF0C0FB00283FF4F6AE0B2591
:104ED00008E6002F3FF4AAAE00F142019DF832200F
:104EE00090F841001FF085FE00283FF49DAE206839
:104EF00094E62C4B93F900507F2D51D07F221A70ED
:104F00009AF80430032B05D09AF80430062B14BF0E
:104F100001210321059116F087FF059906F142034F
:104F20000090CDE9025175E71E466CE70A9B06F139
:104F300042019DF8322096F841001FF05AFE0028E9
:104F40003FF4E2AE174B93F90080B8F17F0F27D002
:104F50007F22002103201A70FEF772FB23680646A9
:104F6000D4F8049003F1420716F05EFF2A460125AB
:104F700000903B46CDF8088008A903954846257B5C
:104F8000019500F0EDFF002E3FF44BAF00283FF4F9
:104F9000A8AD95E70C25A5E5012A7FF639AE45E6D3
:104FA000FDF7D6FC1000002110B5044616F0F8FA03
:104FB000094A2378107003F00F03072B05D1204610
:104FC0000121BDE81040FFF76FBD044B586800F0A9
:104FD0007BFF012010BD00BF1000002160050021F3
:104FE00010B5044616F0DCFA094A2378107003F075
:104FF0000F03072B05D120460321BDE81040FFF722
:1050000053BD044B586800F05FFF012010BD00BF86
:10501000100000216005002190F83E00003818BF04
:1050200001207047007A003818BF0120704700BF88
:10503000036D10B583B10222FF21044642721A8823
:105040004FF6FF7380F8271003850649428120F050
:10505000CCFC0023236510BD40F261313220FBF708
:105060006BFA00BF1125000138B50121054600206B
:10507000FBF734FF20B3044601F05AFD02E094F838
:1050800070301BB194F87030012BF8D13F22002111
:1050900020461BF033FF002340F20111072284F861
:1050A000543084F8A530A4F84C1084F8585084F893
:1050B0004B20636684F89430C4F8903084F8A630AE
:1050C00001210846FBF70AFF044618B301F030FD42
:1050D00002E094F870301BB194F87030012BF8D1D5
:1050E0003F22002120461BF009FF002340F201115E
:1050F000072284F8543084F8A530A4F84C1084F8C2
:10510000585084F84B20636684F89430C4F890308B
:1051100084F8A630BDE8384000F0FEBDF8B506467C
:105120001D4F0AF099FD034601210020BB60FBF7EB
:1051300099FE30B34FF4C072002104461BF0DEFE2E
:1051400001210846FBF78EFE7F69054680B14FF4CA
:10515000C07200211BF0D2FEC7B13046FFF784FFBA
:10516000204601F0C7FC2846BDE8F84001F0C2BC6B
:1051700067B13046FFF778FF2046BDE8F84001F000
:10518000B9BC40F691013220FBF7D6F940F69B01FD
:105190003220FBF7D1F900BF60050021014B024A24
:1051A0005A61704760050021AC570001034904486B
:1051B000044B054A08601A60704700BFC410002104
:1051C0008D2F0001C8100021FD270001036810B5D4
:1051D0004BB1074A03F16C045169C2E900340B6812
:1051E000BDE81040184740F67F113220FBF7A4F9C4
:1051F0006005002110B50F4C606800F065FE637B10
:105200008BB9206801216268002311710246A0F861
:1052100079316C3082F87B3100F0DEFD2068BDE82A
:10522000104002F0D3BB17F04FFC16F051FA0023E8
:105230006373E6E76005002180F84B10704700BFFC
:1052400011F001031FD04FF0010C0222634680F8D9
:105250007CC111F0020F0ED000EB030C490700B522
:105260004FF0020E8CF87CE103D51044042380F843
:105270007C315DF804FB4A0704D51844042380F808
:105280007C31704770470122E3E700BF80F8571078
:10529000704700BF38B590F840C0ACF1020EBEF1C7
:1052A000010F98BF00290CBF0124002408D00CF086
:1052B000FD000038BDE8384018BF01200AF006BFE5
:1052C00002F0FD0205461946101E18BF01201FF00E
:1052D000CAFC082801D0204638BD95F840C0E6E752
:1052E00090F8400000F0FD00003818BF01200AF0DF
:1052F000EDBE00BF90F8A6303BBB10B5044603F0EE
:10530000FF0094F85430022B07D0012B08BF04296A
:105310000CBF0120002002D010BD0429FCD1D4F81C
:105320001031A3B9236DBBB10DF068F8216D04F104
:10533000E80001F031FD0DF067F8042384F8A73090
:10534000FF2384F8A630012010BD002070474FF4E1
:1053500020613220FBF7F0F840F601213220FBF704
:10536000EBF800BF80F84010704700BF38B5044626
:1053700090F8400000F0FD0004F14201003818BF31
:10538000012084F841000AF087FE94F84030023B87
:10539000DBB2012B94BF0123002384F8483000D9ED
:1053A00038BD0BF0D7F8054619F01AFA094BE5FBA2
:1053B000030194F84830C4E92001002BF0D000200C
:1053C0000BF0B2F90028EBD140F629213220FBF78F
:1053D000B3F800BF40420F00B1F1000C4FF00801DC
:1053E00010B504460CBF0120002084F856C084F894
:1053F0004D0084F84E1009D102F0FD021946101E2E
:1054000018BF01201FF02FFC84F84E0010BD00BF14
:1054100008B5A2B180F85A10D2F800C0036DC0F8E8
:105420005BC090F841109288A0F85F205972D0F8C4
:105430004220C3F80A20B0F84620DA8108BD40F6C1
:1054400047213220FBF778F880F84910704700BFF9
:1054500080F84A10704700BFF0B5D0F8C8409DF8FA
:1054600014E0944203D190F840208A4201D00020F9
:10547000F0BD1EF0020190F8455123D00024A4464F
:105480002146224611E0314300EB820253F82C60A2
:105490000CF101070134D2F8CC205FFA87FC763298
:1054A000B242E4D1E2B2AA4226D8861896F87C61CC
:1054B000F71E012FE7D80CF1010C41F004015FFA4F
:1054C0008CFCE1E70E460A468418013694F87C41CC
:1054D000E71E012F53F8227088BF214300EB82049E
:1054E00098BF41F00401F2B2D4F8CC4004F1760C3C
:1054F0006745BCD1AA42E7D90EF00500401AB0FAC0
:1055000080F04009F0BD00BF90F854305A070ED427
:1055100013F0030301D11846704790F8550000F0CE
:10552000FD00A0F10100B0FA80F04009704790F84A
:105530005600A0F10100B0FA80F04009704700BFAA
:10554000012938B5044610D094F8543004F16C05A4
:105550009B071AD1284600F03FFC0023A4F87931BC
:1055600084F87B3184F8703038BD0A4D6B7B002B9A
:10557000EAD017F0A9FA16F0ABF800236B7304F128
:105580006C0594F854309B07E4D0284600F09CFC4E
:10559000E0E700BF60050021A0301FF05EB800BF4B
:1055A0000149363020F024BAED24000110B5012164
:1055B00004460020FBF792FC80B36278034680F833
:1055C0005420217811F0010223D1012011F0020FA3
:1055D00005D003EB020C024602208CF87C0149073F
:1055E00003D51A44042182F87C11A27883F8402064
:1055F000E17801F0FD0283F85510B2FA82F2520907
:1056000083F84C20227983F84B20627983F8572065
:1056100010BD0122022083F87C21D7E74FF42E61D0
:105620003220FAF789FF00BF10B504466C3000F055
:105630004BFC0023A4F8793184F87B3184F8703076
:1056400010BD00BF10B5012104460020FBF746FC49
:1056500068B1034690F8942002F0FF002AB9C3F81D
:105660009040FF2283F8942010BD0C2010BD40F61E
:1056700024313220FAF760FF08B501210020FBF742
:105680002DFC18B1002380F8943008BD40F6353168
:105690003220FAF751FF00BF38B501210020FBF797
:1056A0001DFCF0B1044690F89430BBB1002380F8A3
:1056B0009430D0F890000121503021F0F1F9D4F865
:1056C000903093F8443003F0FF053BB9D4F89000D4
:1056D00013F07CFE2846C4F8905038BD0C252846AF
:1056E00038BD40F63C313220FAF726FF08B50121DB
:1056F0000020FBF7F3FB28B190F89400003818BFA6
:10570000012008BD40F65F313220FAF715FF00BFD7
:10571000092A0001C52A000145430001D53E0001C8
:1057200031260001F53A00012538000181380001D9
:10573000594500013D450001893E0001193F000126
:10574000C13F0001693F0001ED250001293B000137
:1057500001390001C9430001E12400018D4200012B
:10576000F9400001E1240001E12400011D40000195
:105770009541000129420001814000019D4900013D
:105780005D290001A94F0001E14F0001F12D000149
:10579000692E00013D390001052600017D2600012A
:1057A0007D260001213600011D26000195450001DE
:1057B0002057000130570001485700017C57000175
:1057C000945700012DE9F04705468CB00E460020A5
:1057D0000121FBF783FB002800F075820446A83006
:1057E00001F0C2F9002846D094F85430042B42D07E
:1057F000AF6A002F00F05281BD4B9F4263D0043B43
:105800009F4260D00AF036FA07F13B09804602A9B0
:10581000484600F0C1FEEB7AB8F1000F00F0BC8002
:10582000DC0606F10D0100F1F481002F00F050823A
:105830009DF80830022B00F04B8295F83230E522BB
:1058400048461FF0D9FE95F83230044648462344B6
:1058500085F832301FF0C8FE95F83290A9EB0009A8
:10586000B9FA89F94FEA5919B8F1000F31D104F1A9
:105870001803DBB29FE02046FFF7CEFB0028B7D12C
:105880009C4C04F1080604F10C070023AA6A002AC4
:1058900000F03481A96A0A68B142AA620B704B70A9
:1058A0008B70CB70F2D0B942F0D020681CF0F0F9C8
:1058B000231DD3E84F3F0133211DDBB2C1E8423F36
:1058C000002AF5D1E1E70AF0D5F9814600286ED02B
:1058D0000024EA7AD10640F1FB815207AB7A697B5A
:1058E00003D5EA7EFE2A00F0748104F10A02F37007
:1058F000717102FB03F30322023332707370D5F827
:105900000E30C6F806306B8A3473344473812B7EB4
:105910006373EB7A13F0080000F00481754C0423E4
:1059200004F108083371474579D13379022262F3D3
:105930004613AA6A33716AB1EFF3108272B6AB6A8A
:105940001968A962002A00F0C58000221A705A70F6
:105950009A70DA70A5F1080120681CF099F9231DEE
:10596000D3E84F3F0133211DDBB2C1E8423F002A9B
:10597000F5D102274FF004088DF804808DF80570EA
:105980009DF8042000209DF8053062F3070063F3C2
:105990000F200CB0BDE8F087D80606F11C0100F11D
:1059A000418127B19DF80830022B7FF446AF1823C0
:1059B00000244FF0010904223270AA7A02FB03F39B
:1059C000F27002337370D5F80B20D5F80F30D5F88C
:1059D0001300D5F817107260B360F0603161D5F82C
:1059E0001B20D5F81F307261B36195F8148095F8CB
:1059F00015A00AF07DF908F1FF338A05DBB253D513
:105A0000032B00F269813C4AD35C7373BAF1000F37
:105A100062D1F476374C04F10808474585D004F18B
:105A20000C0A574500F08780002F00F0AC80B9F1D8
:105A3000000F2AD0AB6A63B1EFF3108272B6AB6A83
:105A40001968A96202B962B600221A705A709A7077
:105A5000DA70394620681CF01BF9231DD3E84F3F4C
:105A60000133211DDBB2C1E8423F002AF5D1AB6A08
:105A700085F83220434500F0DF80534500F0008177
:105A80009DF80830022B00F0BD803379012262F3CB
:105A90004613337101274FF004086DE70AF0EAF866
:105AA00005F133098046B2E6032B00F21E81124A4B
:105AB00013441B797373BAF1000FAAD00AF1FF3AAD
:105AC0005FFA8AFABAF1030F00F20F815244137998
:105AD000B3739EE762B638E70AF1FF3A5FFA8AFAD3
