:020000040000FA
:1000000028AB012035300100AD280100213001006E
:100010002130010021300100213001002130010098
:10002000000000000000000000000000013201009C
:1000300021300100000000004931010021300100A1
:100040001135010011350100113501001135010094
:100050001135010011350100113501001135010084
:100060001135010011350100113501001135010074
:100070001135010011350100113501001135010064
:100080001135010011350100113501001135010054
:100090001135010011350100113501001135010044
:1000A0001135010011350100113501001135010034
:1000B0001135010011350100113501001135010024
:1000C0001135010011350100113501001135010014
:1000D0001135010011350100113501001135010004
:1000E00011350100113501001135010011350100F4
:1000F00011350100113501001135010011350100E4
:1001000011350100113501001135010011350100D3
:1001100011350100113501001135010011350100C3
:1001200011350100113501001135010011350100B3
:1001300011350100113501001135010011350100A3
:100140001135010011350100113501001135010093
:040150001135010064
:1001580081F0004102E000BF83F0004330B54FEA70
:1001680041044FEA430594EA050F08BF90EA020FDD
:100178001FBF54EA000C55EA020C7FEA645C7FEA70
:10018800655C00F0E2804FEA5454D4EB5555B8BF93
:100198006D420CDD2C4480EA020281EA030382EA04
:1001A800000083EA010180EA020281EA0303362D96
:1001B80088BF30BD11F0004F4FEA01314FF4801C69
:1001C8004CEA113102D0404261EB410113F0004F7B
:1001D8004FEA03334CEA133302D0524263EB430332
:1001E80094EA050F00F0A780A4F10104D5F1200ED0
:1001F8000DDB02FA0EFC22FA05F2801841F100012B
:1002080003FA0EF2801843FA05F359410EE0A5F1FE
:1002180020050EF1200E012A03FA0EFC28BF4CF02F
:10022800020C43FA05F3C01851EBE37101F00045E5
:1002380007D54FF0000EDCF1000C7EEB00006EEBF2
:100248000101B1F5801F1BD3B1F5001F0CD349087C
:100258005FEA30004FEA3C0C04F101044FEA4452D3
:1002680012F5800F80F09A80BCF1004F08BF5FEA5A
:10027800500C50F1000041EB045141EA050130BD3A
:100288005FEA4C0C404141EB0101013C28BFB1F54C
:10029800801FE9D291F0000F04BF01460020B1FA97
:1002A80081F308BF2033A3F10B03B3F120020CDA6A
:1002B8000C3208DD02F1140CC2F10C0201FA0CF048
:1002C80021FA02F10CE002F11402D8BFC2F1200CAD
:1002D80001FA02F120FA0CFCDCBF41EA0C01904063
:1002E800E41AA2BF01EB0451294330BD6FEA0404AC
:1002F8001F3C1CDA0C340EDC04F11404C4F1200297
:1003080020FA04F001FA02F340EA030021FA04F3A8
:1003180045EA030130BDC4F10C04C4F1200220FAFF
:1003280002F001FA04F340EA0300294630BD21FA3D
:1003380004F0294630BD94F0000F83F4801306BF03
:1003480081F480110134013D4EE77FEA645C18BFF7
:100358007FEA655C29D094EA050F08BF90EA020F8E
:1003680005D054EA000C04BF1946104630BD91EA86
:10037800030F1EBF0021002030BD5FEA545C05D189
:100388004000494128BF41F0004130BD14F58004C8
:100398003CBF01F5801130BD01F0004545F0FE413C
:1003A80041F470014FF0000030BD7FEA645C1ABF71
:1003B800194610467FEA655C1CBF0B46024650EAA8
:1003C800013406BF52EA033591EA030F41F40021D4
:1003D80030BD00BF90F0000F04BF0021704730B55A
:1003E8004FF4806404F132044FF000054FF000012F
:1003F80050E700BF90F0000F04BF0021704730B5F0
:100408004FF4806404F1320410F0004548BF4042C4
:100418004FF000013EE700BF42004FEAE2014FEA19
:1004280031014FEA02701FBF12F07F4393F07F4FF4
:1004380081F06051704732F07F4208BF704793F0F7
:100448007F4F04BF41F40021704730B54FF460740A
:1004580001F0004521F000411CE700BF50EA01020D
:1004680008BF704730B54FF000050AE050EA0102B6
:1004780008BF704730B511F0004502D5404261EB26
:1004880041014FF4806404F132045FEA915C3FF467
:10049800D8AE4FF003025FEADC0C18BF03325FEA04
:1004A800DC0C18BF033202EBDC02C2F1200300FAB5
:1004B80003FC20FA02F001FA03FE40EA0E0021FADA
:1004C80002F11444BDE600BF4FEA410212F50012E2
:1004D80015D211D56FF47873B3EB625212D94FEA83
:1004E800C12343F0004343EA505311F0004F23FA6D
:1004F80002F018BF404270474FF00000704750EAC2
:10050800013005D111F0004008BF6FF0004070477E
:100518004FF00000704700BF7BB972B90029BEBF19
:1005280000204FF0004106E008BF00281CBF6FF014
:1005380000414FF0FF3000F057B8ADF1080C6DE9FD
:1005480004CE002909DB002B1ADB00F07CF8DDF86B
:1005580004E0DDE9022304B07047404261EB410149
:10056800002B1BDB00F06FF8DDF804E0DDE9022367
:1005780004B0404261EB4101524263EB43037047D0
:10058800524263EB430300F05EF8DDF804E0DDE976
:10059800022304B0404261EB41017047524263EBD1
:1005A800430300F050F8DDF804E0DDE9022304B06D
:1005B800524263EB4303704753B94AB9002908BF55
:1005C80000281CBF4FF0FF314FF0FF3000F00CB88F
:1005D800ADF1080C6DE904CE00F035F8DDF804E063
:1005E800DDE9022304B07047704700BF10F8012B03
:1005F80011F8013B012A28BF9A42F7D0D01A704758
:10060800034611F8012B03F8012B002AF9D1704792
:10061800034613F8012B002AFBD1181A013870473A
:10062800430803F05533C01A00F03333800800F054
:10063800333018444FF0013300EB101000F00F3046
:100648005843000E70472DE9F04786468C46084609
:10065800089E154674461946002B40F0C180854215
:10066800B2FA82F245D94AB1C2F1200300FA02FC7B
:10067800954094402EFA03F343EA0C0C4FEA154ECA
:10068800A8B2230CBCFBFEF80EFB18CC08FB00F943
:1006980043EA0C43994528D9EB1808F1FF3704D2EF
:1006A800994502D9A8F102072B44A3EB0903A4B288
:1006B800B3FBFEFC0EFB1C330CFB00F044EA0344C6
:1006C800A04214D92C190CF1FF3304D2A04202D94C
:1006D800ACF102032C44241A43EA07401EB1D4406B
:1006E800002334607360BDE8F0874746DDE7634662
:1006F800F1E792BB431B01214FEA154EAFB2200C24
:10070800B3FBFEFC0EFB1C330CFB07F840EA03436B
:10071800984561D9EB180CF1FF3004D2984502D9FD
:10072800ACF102002B44A3EB0803A4B2B3FBFEFC1C
:100738000EFB1C330CFB07F744EA0344A7424DD9D0
:100748002C190CF1FF3304D2A74202D9ACF10203F1
:100758002C44E41B43EA0040C0E7C2F12003954063
:10076800944020FA03F12EFA03F34FEA154E904015
:10077800AFB20343B1FBFEFC0EFB1C10190C0CFBC3
:1007880007F841EA0041884522D969180CF1FF3081
:1007980004D2884502D9ACF102002944A1EB080132
:1007A8009BB2B1FBFEFC0EFB1C110CFB07F743EAE6
:1007B80001439F420ED9EB180CF1FF3104D29F423E
:1007C80002D9ACF102012B44DB1B41EA004193E75B
:1007D8006046E3E76146F7E76046A4E76346B8E7A3
:1007E800834206D916B9002108467CE7C6E900E02D
:1007F800F9E7B3FA83F78FB9834201D3724508D872
:10080800BEEB020460EB030301209C461EB90021E5
:1008180069E73846FAE7C6E9004CF8E7C7F1200C63
:10082800BB400EFA07F522FA0CF42EFA0CF1BA4086
:100838001C4320FA0CF3B8404FEA144901431FFA4D
:1008480084FEB3FBF9F809FB18300B0C08FB0EFA11
:1008580043EA00439A4540D9E31808F1FF3004D22F
:100868009A4502D9A8F102002344A3EB0A0389B2EE
:10087800B3FBF9F809FB183308FB0EFE41EA034104
:100888008E452CD9611808F1FF3304D28E4502D960
:10089800A8F10203214443EA0040A1EB0E01A0FBAA
:1008A80002984145CE46434602D306D14D4504D26F
:1008B8000138B9EB020E68EB0403002EA7D0B5EBA4
:1008C8000E0261EB030101FA0CFC22FA07F3F9406E
:1008D8004CEA0303C6E9003199E74046C5E74346B9
:1008E800D9E700000000000070B5194E82B03378D7
:1008F8002BBB02460D464BF680331649164826F0A8
:1009080081FB044610B925B901233370204602B093
:1009180070BD4FF40043214640F2E7304FF47A723D
:10092800E3FB05010023FFF747FE9FED077B024627
:100938000B460A488DED007B36F050F8E4E76FF07F
:100948000F04E3E7AFF300800000000000000000A0
:100958006AFC0020405200204452002090140020DD
:1009680038B50124144B15481968D1F80425013A03
:10097800C1F8442504601968D1F844359A42FBD07F
:1009880007210F4A0F48104CD4F844451568A3FBBB
:10099800000201FB032106A3D3E90023FFF70CFEA5
:1009A8000A4B03FB0544204438BD00BFAFF3008069
:1009B80000CA9A3B000000008809002000B00150DE
:1009C800ACCD00208D49FD1A000001500080841E26
:1009D8002DE9F04705460F46164688B035F0D2FE99
:1009E80044014B01241A43EAD06363EB0103A200DC
:1009F8009B00121843EA947341EB0303DB0043EABC
:100A08005273C2F31038012F48EA43484FEAD334EF
:100A180043D0766833782D2B38D031462848FFF7F5
:100A2800E5FD002840D124A3D3E900234046214610
:100A3800FFF772FD06460C4610461946214A002368
:100A4800FFF76AFD80460F46104619464EF66022AB
:100A58000023FFF761FD82468946104619464FF488
:100A68007A720023FFF758FDCDE902A9CDE9040108
:100A7800CDE90623284632462346CDE900871249A8
:100A88000FF0DCFB002008B0BDE8F0877378702B0E
:100A9800C3D1B378002BC6D0BFE7424623462846C9
:100AA8000A490FF0CBFBEDE72846324608490FF01C
:100AB80007FC6FF00400E6E7005C26050000000074
:100AC800988E050080EE3600BC8E0500848E0500E9
:100AD800A48E0500000000002DE9704F2DED028B5B
:100AE80005468AB02120002134F022FF0C244FF063
:100AF800000A4FF0000B4FF010084FF000099FED6F
:100B08003E8B013C43D0C826CDE900ABCDE9068930
:100B18002868089683685B68002B48D000226946DD
:100B28009847024670BB792000218DED008BCDE9F6
:100B380006010896286883685B68002BE1D069463F
:100B480098470028DDD195F850209AB3039BD9B275
:100B5800AA29D6D103F47063B3F5807F49D1B5F8DB
:100B6800723043F00803A5F872302ABB284600F01B
:100B7800EBF8024600283CD110460AB0BDEC028BC7
:100B8800BDE8708F0128BCD010F1740FF4D1002299
:100B980000234FF010084FF00009CDE90023C823C7
:100BA800CDE906892868089383685B68ABB96FF05C
:100BB8005702E1E7029BCAE7C8234FF03B084FF012
:100BC8000109102208930023CDE90089CDE9062305
:100BD800286883685B68002BE9D00022694698473B
:100BE80002460028C2D010460AB0BDEC028BBDE810
:100BF800708F6FF08502BFE708000000AA010000AF
:100C080000230D2210B58AB0CDE9002390F85030AA
:100C180004461BB9B0F866301B0401939FED1A7B9C
:100C2800C8238DED067B2068089383685B68F3B161
:100C3800002269469847D0B994F85020029B62B1C7
:100C480013F4407F19D113F4604F19D113F4E05F06
:100C580018BF6FF004000AB010BDDA050AD5C3F357
:100C68004323042B18BF6FF00F000AB010BD0120FA
:100C78000AB010BD6FF00F00F7E76FF00C00F4E753
:100C88006FF01500F1E700BF310000000000000020
:100C980037239FED177BC82210B509048AB0044694
:100CA8008DED067BCDE900310068089283685B68AA
:100CB8008BB100226946984768B9069B012B0DD075
:100CC80094F850302BB9029B13F0200F08BF6FF037
:100CD80085000AB010BD01200AB010BD029A064B6B
:100CE8001340002BECD06FF00400F2E7AFF3008064
:100CF80011000000000000000880F9FD000000005D
:100D08003A22C8239FED0E7B10B58AB004468DEDBC
:100D1800067BCDE900210068089383685B685BB1B6
:100D280000226946984728B9039B002B08BF6FF03B
:100D3800850063650AB010BD6FF05700FAE700BF81
:100D480040000000000000002DE9F04390F850300A
:100D580091B0002B00F0A38100210546FFF7D0FFDA
:100D68000446002857D1B5F8726085F87100C6F3BB
:100D7800C006B607642031F0E7F92922C823CDE977
:100D880006260E9314220023CDE90C230CE0DB0782
:100D980040F178814FF4A470002134F0C9FD01348A
:100DA800B4F57A7F00F09F8100212846FFF770FF95
:100DB80001280246F3D0002833D1286883685B688D
:100DC8006BB306A99847024658BB7EB395F85020E6
:100DD800089B002ADBD1002BDCDA5F006B6505D5A8
:100DE800B5F8722042F00202A5F87220DE0105D59E
:100DF800B5F8722042F02002A5F872209C0305D5B0
:100E0800B5F8723043F04003A5F87230284614F064
:100E18001DFF0446C8B1204611B0BDE8F0836FF04D
:100E280057021446204611B0BDE8F08395F85030BB
:100E3800002B40F027816B6D5F00D7D5B5F8722085
:100E480042F00202A5F87220D0E7284614F0BAFE54
:100E580004460028DFD1EB6AA94A2E46934228BFF0
:100E680013466B6056F8040B83689B68002B00F0F0
:100E780037813146984704460028CCD101462422C0
:100E880006A852F0A8F92846B5F86610CDE900443E
:100E9800CDE90244CDE90444FFF7FAFE04460028F0
:100EA800B9D1C8230E93082301930123029342F278
:100EB8001073332205930023CDE906231122002362
:100EC80005F19407CDE90C232868049783685B68CB
:100ED800002B00F005816A4606A9984704460028B9
:100EE80099D1D5F894100ABA080201F00F03D2B2CA
:100EF80000F1D880012B00F0E080022B00F0CB80BD
:100F0800002B00F0D880B5F87230480544BF43F094
:100F18000403A5F87230D10744BF43F48073A5F8E1
:100F28007230920744BF43F08003A5F8723013F083
:100F380002021BD111239FED707B0C93C8238DED0A
:100F4800067BCDE90822CDE90A2228680D920E9386
:100F580083685B68002B00F0C38006A998470028C7
:100F680040F0A7804FF40073A5F86C3095F83A303C
:100F780098067FF550AF95F86E30012B7FF64BAF92
:100F8800D5F85880B8F1000F3FF445AF95F86030B8
:100F9800062103F00203002B4FF00003CDE90933CB
:100FA8000893009303930B930D934FF011030C9345
:100FB8004FF0C8030E934FF0400301934FF0010325
:100FC800029342F2107314BF0122002205934D4B85
:100FD80085F86F2042EA03020497D5F82C900CBFDD
:100FE8000127022728680691079283685B68002B0F
:100FF80076D06A4606A99847034600286ED195F828
:10100800A43095F86F2003F00F039A4257D095F853
:101018003A305A077FF5FFAEB5F872305B077FF5B7
:10102800FAAE2422002106A852F0D5F82846B5F8D1
:101038006610FFF72DFE044600287FF4ECAEC823A7
:1010480001220E930023CDE90C23062202232868EF
:10105800CDE9062383685B68002B41D0224606A9A8
:101068009847044600287FF4D6AE0C9B012B3DD050
:1010780004232868AB7283689B688BB33146984712
:101088000446C8E631462846FFF73AFE04460028DB
:101098003FF4D1AEBFE6042385F86E3033E76FF036
:1010A8008504B8E6012B08D0022B7FF429AF08236A
:1010B800F2E70446AFE60123EEE70223ECE7C84572
:1010C800434628BF4B462868EF726B6083689B686D
:1010D80033B1314698470346002898D01C469AE613
:1010E8006FF0570497E66FF0730494E6089B064C7C
:1010F8001C40002CBCD08EE610000000000200004E
:1011080040787D01F0FFFF800880F9FD00000000B5
:101118002DE9F04FD0F810801C46D8F80430054669
:10112800187FD8F8106085B0002800F00E8193462B
:101138009A690F460023013A03E00133834200F025
:10114800048112F8011FA142F7D1984240F2FD80B4
:101158005A094FEA820C06EB82020832D2E8AF2F16
:1011680003F01F031A41D20702D405B0BDE8F08F7F
:101178004FF0010909FA03F906F10C036344194613
:101188000293D1E8EF3F43EA0902C1E8E02F0028C3
:10119800F7D119EA030F44D133685A46D3F808A0A7
:1011A800214640467368D0478246002867D010F031
:1011B8000303039340F0D5809FED6B7B5A460146AD
:1011C8008DED007B6A4812F05BFF834600283BD018
:1011D8003A06077601D4039B03822846594617F03E
:1011E80033FA0028C1D0634803685B077ED16FEAF1
:1011F8000909584613F028F82146D6E90034009426
:10120800DC68524640460023A0470299D1E8EF3FE8
:1012180003EA0903C1E8E23F002AF7D105B0BDE8B7
:10122800F08F06F11003634418460293D0E8EF3FAD
:1012380043EA0902C0E8E12F0029F7D119EA030FB0
:10124800AAD005B0BDE8F08F4A480368590753D1C2
:101258006FEA09092146D6E900340094DC68524651
:1012680040460023A0470299D1E8EF3F03EA09036B
:10127800C1E8E23F002AF7D105B0BDE8F08F35F0AC
:1012880081FA47014A013F1A42EAD0624FEA8703CE
:1012980062EB01061A184FEA860343EA977341EB9B
:1012A8000303DB0043EA5273C2F31032324D42EAC1
:1012B8004342D5E8AF3F41F28731D01A884220D85F
:1012C8002E4BD3E8EF1F0131C3E8E21F002AF8D103
:1012D8006FEA09090299D1E8EF3F03EA0903C1E877
:1012E800E23F002AF7D105B0BDE8F08F01213B4667
:1012F800234A0CF067F87AE70121224A0CF048F8F3
:10130800A6E7D5E8EF1F994203D1C5E8E02F0028EA
:10131800F7D1D5D1194AD2E8EF3FC2E8E1AF0029A9
:10132800F9D1144D3BB12A685607D1D0012128467E
:10133800154A0CF047F82B685807C9D001212346F5
:10134800124A0C480CF03EF8C2E71149114840F225
:101358006913114A08F05EFF40F269110E4807F060
:1013680037FB17F0D9FB00BF0000000000000000A9
:10137800141D0020C0130020C4DD0020C0DD0020A3
:101388002CBC050044BD050010BD050024BD0500AA
:10139800E4BC0500284A0500D0BB05000000000099
:1013A8002DE9F04FD0F80480174698F81C2006461F
:1013B8000D469946D0F810A083B0AAB3D8F81830D3
:1013C800002403F1FF3C02E0013494422CD01CF8C5
:1013D800013FAB42F8D1D8F8003022461969586865
:1013E80017F062FC002800F0828090F802B0BBF190
:1013F800000F7CD063099A000AEB83030833D3E813
:10140800AF3F04F01F042341D90710D4DAF80030A5
:101418003A461C6929463046DAF80430A0470026C7
:10142800304603B0BDE8F08F6FF00104D3E7012523
:10143800A5400AF10C041444D4E8EF3F43EA05013F
:10144800C4E8E01F0028F7D11D420CD00AF11004AF
:101458001444D4E8EF3F43EA0502C4E8E12F002929
:10146800F7D11D4250D117F0030655D19FED2C7BC3
:1014780039464A468DED007B2B4812F001FE07469F
:1014880030B31BF0800F80F818B000D106823946BF
:10149800D8F8000017F0D8F806460028BFD023482F
:1014A80003685B070ED1384612F0CEFEED43D4E850
:1014B800EF3F2B40C4E8E23F002AF8D1304603B0A2
:1014C800BDE8F08F01215B46194A0BF07BFFEAE784
:1014D800164803685A071AD1ED43D4E8EF3F2B406A
:1014E800C4E8E23F002AF8D16FF00B0698E70F48EE
:1014F80003685C0702D16FF0010691E701212B46D2
:101508000C4A0BF05FFFF6E76FF00A0688E7012147
:10151800094A0BF03DFFDFE717F0FEFAAFF3008052
:101528000000000000000000141D0020C01300206F
:101538002CBC050028BF050044BF050000000000C2
:101548002DE9F04F2DED028B04469FEDAF8BDFF8B0
:10155800ECA287B000224FF0FF318DED008BAC4834
:1015680036F04AF94FF0FF31A94836F041F90646FE
:10157800300700F11581F70600F10881B50600F182
:10158800FB80B0075BD4F10700F19480720700F18B
:1015980057817306DED5206984309E4D4FF0FF32A7
:1015A8004FF0FF3331F0E8FD296800293FD09A4E0B
:1015B8009A4F91FAA1F8B8FA88F84146B8F10F0F96
:1015C800C8BFA8F110012046CCBFC9B241F08001C4
:1015D8001EF0BCFC814690F828B04FF0FF324FF067
:1015E800FF33304631F05EFF58461FF0F7FD3046B6
:1015F80000F0AEFE4FF4800349462046C7F8043198
:101608001EF01CFD002148461EF0B0FC012101FA25
:1016180008F1C9438248D0E8EF3F0B40C0E8E23FF9
:10162800002AF8D12B68194029600029C1D17D48CA
:1016380032F09AFD2069843000F09EFC8AE700238E
:10164800774AD2E8EFBFC2E8E13F0029F9D1BBF100
:10165800000F98D05F46039697FAA7F64FF0010857
:10166800B6FA86F608FA06F20F2E27EA020740DCD9
:1016780046F08005294620461EF068FC83461EF089
:1016880097FC8146002800F03981584600211EF059
:101698006DFC0022494620461EF0B4FC002E4FD0B7
:1016A800294620461FF06AFC002FD5D1039EF1077A
:1016B8007FF56CAF00225C4BD3E8EF5FC3E8E12F06
:1016C8000029F9D1002D3FF461AF012795FAA5F360
:1016D800B3FA83F307FA03F20F2B25EA020500F3A6
:1016E800F580204643F080011FF048FC002DEDD125
:1016F8004CE7A6F11005EDB2294620461EF026FC5F
:1017080083461EF055FC814678B1584600211EF0EC
:101718002DFC0022494620461EF074FC294620462E
:101728001FF064FC002F97D1C0E7404B1B68590796
:10173800F4D03F4A2B4641463C480BF043FEEDE7C8
:1017480099F81920930740F1F8803A4B314683F80D
:1017580000802046CAF850801EF0F8FB1EF028FCD6
:10176800014600289CD0427E500740F1D78032467F
:1017780020461EF047FC93E7204600211EF09CFB04
:101788000022022120461EF02DFCFAE62046002108
:101798001EF092FB0022022120461EF023FCEDE6FB
:1017A8004FF0FF324FF0FF331B4831F07BFEEFF371
:1017B8001182202383F31288BFF36F8F1E4B1B788F
:1017C8007BB1DAF8003413F400730AD10121CAF8A6
:1017D8002C15DAF82C15DAF80014890548BFCAF870
:1017E8002C3582F31188BFF36F8F0B4800F0B0FDE2
:1017F800204601211EF060FB0022032120461EF036
:10180800F1FBB8E6AFF30080FFFFFFFFFFFFFFFF2C
:10181800BC18002068E200201418002000E100E055
:10182800DCE5002010190020E0E5002094130020DA
:1018380038E0050094FC002090FC00200060035074
:101848000023484A1370DAF88014C9B28DF81010D2
:10185800DAF88404C0B28DF81100DAF88834DAF8BE
:101868008C2443EA02239BB2ADF81230DAF89024B4
:10187800DAF8945442EA0522ADF81420DAF89824EC
:10188800DAF89C5442EA052292B2ADF8162009B95A
:10189800052825D00023344A344913700878DAF82B
:1018A8007014884228D001214FF4A0600D461170B1
:1018B800ADF81000DAF870240593ADF812202C4B1F
:1018C800204604A91D701EF0D1FB62E6A3F11001A9
:1018D8002046C9B21FF08AFB002D7FF4F7AE55E60B
:1018E800012021490870002A7FF453AE03F07F03DA
:1018F800ADF81230ADF814200025E0E71D48036864
:101908005A0729D11C491D4840F2DD431C4A08F0FA
:1019180081FC40F2DD411A4807F05AF8194940F2B3
:10192800F243174A154808F075FC174808F072FC8E
:1019380040F2F241124807F04BF8144940F2E543EF
:101948000F4A0E4808F066FC114808F063FC40F2A4
:10195800E5410B4807F03CF80E4A2B4641460BF090
:1019680031FDCFE794FC002093FC002091FC00207F
:1019780092FC00209413002098E10500284A0500F5
:1019880024DD0500FCDF05001CE00500C8DF0500BC
:10199800E4DF0500ACDF05002DE9F84300229FEDE8
:1019A8002C7B02204FF480364FF400182A4C2B4B26
:1019B8002B4FC4F80833C4F848332A4BC4F8082519
:1019C800012183ED027BC4F80463C4F804031520E5
:1019D800C7F8808111F052FC152011F01FFC01237B
:1019E800214DA36023602B60D5E8EF9F29F0010308
:1019F800C5E8E23F002AF7D1C4F80863BFF35F8F58
:101A0800BFF36F8F0021194825F058F919F0010F1D
:101A180005D1022021F0F4F90020BDE8F883D5E8CB
:101A2800EF3F43F00103C5E8E23F002AF7D1104B2E
:101A3800C4F80463D3E8AF3FDB074FF0020048BFA8
:101A4800C7F8008121F0DCF90020BDE8F88300BF69
:101A5800FFFFFFFFFFFFFFFF0050015003000F00D3
:101A680000E100E0A84A00201CE80020FFFF7F00FA
:101A780018E8002000000000414BD3F80423900729
:101A880005D43F4BD3F80423D10312D47047D3F8BD
:101A98000421002AF5D000213A4AC3F80411D3F8EA
:101AA8000431136801331360354BD3F80423D10391
:101AB800ECD5F0B5344A83B0D2E8EF1F21F001002D
:101AC800C2E8E40F002CF7D1CA0704D4D3F8403198
:101AD8000BB903B0F0BD0021294A2A4BC2F84011C6
:101AE800D2F840111B68190A1B06BFF35F8FD2F8A2
:101AF8000425D31841F10001B2F5801F0AD2234A08
:101B0800D2E90067B34271EB070203D213F1807385
:101B180041F10001EFF3118C202282F31288BFF308
:101B28006F8F1B4CD4E90267B342B9411CD39FEDB8
:101B3800127B00204FF4803284ED027B104B216829
:101B480065682060C3F84823C3F84001D3F84031E2
:101B58008CF31188BFF36F8F0029BAD032463B4609
:101B68000095884703B0F0BD8CF31188BFF36F8FE1
:101B780003B0F0BDAFF30080FFFFFFFFFFFFFFFFE3
:101B88000050015020E8002018E80020C04A00203A
:101B9800A84A0020000000002DE9F04F85B003A9F5
:101BA80004461546984626F01FF9064640BB94F8A9
:101BB80031602EBBDDF80CB09BF80030042B00F030
:101BC800C5804FF0FF33B8F1000F18BF1D464FF026
:101BD800000318BF9846D4E90412D4E90E03A942B9
:101BE80072EB080705D294F83070BF070CD40D4685
:101BF80090469FED757B55EA080284ED0E7B07D170
:101C0800304605B0BDE8F08F9FED6F7B84ED0E7B0D
:101C1800BBF80A7050EA03024FEA47273ED0421E3B
:101C280043F1FF39681E68F10001002300923A462B
:101C3800FEF7C2FC844600238A463A464946009885
:101C4800CDF804C0FEF7B8FC019B83427AEB010192
:101C580024D34B4600997A420A40AD1A216CA263FC
:101C6800C4F83C9068EB0908F1B9D4E904509542EE
:101C7800984107D2C4E9042394F8303043F0400374
:101C880084F83030C2F30802002AB9D0636C8B4262
:101C9800B6D03046616405B0BDE8F08FA168002970
:101CA80042D00022134621640020AF4270EB0800A6
:101CB80038BF019623D380E066694CF0400C00964B
:101CC800266920469642009E9E413CBFC4E90423F3
:101CD80084F830C026F0ECFC0146002867D04B1C85
:101CE80043D001292DD9DBF818308B4229D9D4E902
:101CF8000E2300204F4570EB0A0021643AD2B5EB61
:101D0800070994F830C068F1000ABA1843F10003D3
:101D18001CF0020F4D46D046C4E90E23CCD1204614
:101D280026F052FB0146DAE7204626F0C1FC0128DE
:101D3800014606D0421C18D0D4E90E23A0602064C6
:101D480092E702231E4684F8313059E74FF0FF32FC
:101D58002046216C26F0F4FA28B99BF80030042BB1
:101D68003FF439AF2DE706464AE701231E4684F8BB
:101D7800313045E719EB0202019E43EB0A03C9F330
:101D88000800C4E90E23B0B1DBF8180002390238A4
:101D98008142D6D2BBF80A70DBF8300001FB07019C
:101DA8000029CED06D0A45EAC85529445DE7019E51
:101DB800D4E90E2359E7014657E7521943EB0803C4
:101DC800C5F30800DDE700BF0000000000000000C8
:101DD8002DE9F043C36883B0CB1A31D40D46D0E95E
:101DE800052101FB02F29A42044629D9B3FBF1F21C
:101DF80001FB123323BB00F10806EFF311894FF002
:101E0800200888F31288BFF36F8F304634F08EF9BC
:101E1800002869D0304634F0AFF92769FFB12F6048
:101E2800E3693046013B2561E36134F08DF9002810
:101E38004AD089F31188BFF36F8F03B0BDE8F083F0
:101E48003F494FF489733F4A3F4808F0E3F93F4858
:101E580008F0E0F94FF489713A4806F0B9FDEFF35C
:101E6800118388F31288BFF36F8F83F31188BFF350
:101E78006F8F002B46D023689C4200D00BB927698E
:101E8800CDE79A68002A4AD0D3E900219FED2A7B42
:101E98000A6051605A7B83ED007B22F002025A737C
:101EA8009F6003F11800019334F086FB019B1846EC
:101EB800C3F8D0701D6132F013FD4946304603B0B7
:101EC800BDE8F04333F05CB94FF49A73204A1E48DA
:101ED800204908F09FF931461F4808F09BF94FF454
:101EE8009A711B4806F074FD8823194A16481B4945
:101EF80008F090F931461A4808F08CF988211448FE
:101F080006F066FD1749A623174A0F4808F082F91C
:101F1800164808F07FF9A621134806F059FD144920
:101F280009488F23104A08F075F98F210E4806F0EA
:101F38004FFD00BFAFF3008000000000000000006C
:101F480098E1050094250600284A05007426060035
:101F580088840500E884050000850500B88405002C
:101F6800D0840500C42606009826060074250600BD
:101F7800DC26060000000000F8B5EFF30583002B0F
:101F88006FD183680446002B68D05F4A92689342F9
:101F980061D1C368002B71D0012B03D0013BC36012
:101FA8000020F8BDEFF31186202383F31288BFF3D6
:101FB8006F8F564834F0BAF8002876D0534834F07A
:101FC800DBF8A068216990F90E3099421DD1EFF332
:101FD8001183202282F31288BFF36F8F83F3118855
:101FE800BFF36F8F002B53D02568A54200D07DB971
:101FF80000234648C4E9023334F0A6F8002862D02A
:1020080086F31188BFF36F8FCAE732F0B7FFDEE7B8
:10201800AB68002B67D0D5E900329FED397B0027EC
:1020280013605A606B7B85ED007B23F002036B73B2
:1020380005F11800AF6034F0BFFAA56095F90E30CD
:1020480028462361C5F8D07032F04AFC31462F4843
:1020580033F096F8A4E74FF0FF30F8BD6FF01500A5
:10206800F8BD2B49D7232B4A2B4808F0D3F82B4827
:1020780008F0D0F8D721274806F0AAFC28492648B6
:10208800EF23244A08F0C6F8EF21224806F0A0FC06
:102098002449A623244A204808F0BCF8234808F01D
:1020A800B9F8A621204806F093FC8823204A214944
:1020B800194808F0AFF815491F4808F0ABF888210F
:1020C8001B4806F085FC4FF49A73194A1B491248BD
:1020D80008F0A0F80D491A4808F09CF84FF49A71D6
:1020E800134806F075FC17490B488F230E4A08F071
:1020F80091F88F210C4806F06BFC00BFAFF300800D
:102108000000000000000000F84C0020C8EA002091
:10211800D4270600B0270600284A0500E82706004D
:1021280010280600C4260600982606007425060016
:1021380088840500B8840500D0840500E88405007B
:1021480000850500DC2606002DE9F04782B004462C
:10215800894690461D469DF828A000F10806EFF331
:102168001187202383F31288BFF36F8F304633F033
:10217800DDFF002800F09D80304633F0FDFFBAF106
:10218800000F3FD1EFF31183202282F31288BFF3AF
:102198006F8F83F31188BFF36F8F002B00F0978048
:1021A800234653F80C2F9A4200D072BB002D53D10E
:1021B800C8F80050B9F1000F5AD0D9F80030032BF5
:1021C80062D923F003032B43C8F80030D9F8003054
:1021D80003F0030348EA0303C9F80030042104F1BB
:1021E800140035F007F970BB0446304633F0ACFFF5
:1021F800002879D087F31188BFF36F8F204602B08B
:10220800BDE8F087D4F80490BCE79368002B7BD036
:1022180000249FED437B1368516802F118000B609E
:102228005960537B82ED007B23F002035373946063
:10223800019234F0C1F9019A1046C2F8D040C2F8B0
:10224800108032F04DFB00243046394632F098FFBA
:10225800204602B0BDE8F087082035F0EFFC28B32F
:102268000125C0F8048005608046B9F1000FA4D1AB
:1022780023682B43C8F800306368C4F80080002B3B
:10228800ACD1C4F80480A9E7C8F80050626842B12C
:10229800136803F0030348EA03031360C4F80480D7
:1022A8009CE7C4F80080C4F8048097E76FF00B043B
:1022B8009BE788231C4A1D481D4907F0ABFF3146A0
:1022C8001C4807F0A7FF8821174806F081FB1A4928
:1022D800A6231A4A154807F09DFF194807F09AFFE8
:1022E800A621164806F074FB4FF49A730E4A0F485D
:1022F800144907F08FFF3146134807F08BFF4FF45E
:102308009A71094806F064FB104908488F230B4A64
:1023180007F080FF8F21094806F05AFBAFF30080D1
:10232800000000000000000088840500284A05001D
:10233800B8840500D0840500C42606009826060047
:1023480074250600E884050000850500DC260600E3
:1023580070B50446EFF31186202585F31288BFF384
:102368006F8F434833F0E2FE002864D0404833F0D2
:1023780003FFEFF3118385F31288BFF36F8F83F3A5
:102388001188BFF36F8F002B48D02568AC4200D06E
:10239800A5B9D4E902329A4218BF0133022104F1E7
:1023A8001000A36035F026F810BB314833F0CCFE9E
:1023B80020B386F31188BFF36F8F70BDAB68002B15
:1023C80047D0D5E9003200249FED277B13605A607F
:1023D8006B7B85ED007B23F002036B7305F118001E
:1023E800AC6034F0E9F82846C5F8D04032F078FA05
:1023F8003146BDE870401E4832F0C2BE4FF49A73B1
:102408001C4A1D491D4807F005FF19491C4807F0DB
:1024180001FF4FF49A71174806F0DAFA1949A62312
:10242800194A164807F0F6FE184807F0F3FEA621E9
:10243800154806F0CDFA88230E4A15490F4807F0CB
:10244800E9FE0B49134807F0E5FE8821094806F024
:10245800BFFA114909488F230B4A07F0DBFE8F2189
:10246800094806F0B5FA00BF0000000000000000AF
:10247800CCEA002088840500E8840500284A050085
:1024880000850500C4260600982606007425060067
:10249800B8840500D0840500DC2606000000000092
:1024A8002DE9F04781462DED028BEFF311882024AA
:1024B80084F31288BFF36F8F4F4833F037FE00283C
:1024C8006DD005464C4833F057FEEFF3118384F383
:1024D8001288BFF36F8F83F31188BFF36F8F002BC0
:1024E80050D04FF0000A9FED428B6FF00A07564616
:1024F800D9F80040A14500D09CB90023022109F178
:102508001000C9F8083034F075FF10B9BAF1000F9F
:102518002CD0BDEC028B4146BDE8F047364832F07E
:102528002FBEA368002B48D0D4E9003213605A604C
:10253800637B84ED008B23F00203637304F11800BE
:10254800A66034F039F82046C4F8D07032F0C8F9E3
:10255800EFF31183202282F31288BFF36F8F83F386
:102568001188BFF36F8F6BB1AA46C1E7224833F0D9
:10257800EBFD60B388F31188BFF36F8FBDEC028B5E
:10258800BDE8F0871D49A6231D4A1E4807F042FEF4
:102598001D4807F03FFEA621194806F019FA8823BE
:1025A8001A4A1B49174807F035FE1349194807F01E
:1025B80031FE8821154806F00BFA174911488F2378
:1025C8000F4A07F027FE8F210D4806F001FA4FF455
:1025D8009A730E4A11490B4807F01CFE0649104829
:1025E80007F018FE4FF49A71084806F0F1F900BF99
:1025F8000000000000000000CCEA0020C42606000D
:1026080098260600284A05007425060088840500D7
:10261800B8840500D0840500DC260600E88405009F
:10262800008505000000000070B588B00C9D0028EA
:102638003FD0002955D00446D0F8340110F00100ED
:1026480043D1C4F81C01C4F8200104F59270C4E910
:10265800490004F59670C4E94B0045B32E7940F261
:102668000110002E08BF01209FED257BC4F834011E
:10267800002603938DED067B2046CDE90166224BAB
:102688000094049631F0F0FE55B1296811B1204646
:1026980031F07AFE6B791BB1237B43F0010323737E
:1026A800204633F081F9C4F8184108B070BD012004
:1026B800DAE71649164840F23233164A07F0AAFDFF
:1026C80040F23231134806F083F9134910484FF4A9
:1026D8004D73104A07F09EFD4FF44D710D4806F0FA
:1026E80077F90E490A4840F233330A4A07F092FD57
:1026F80040F23331074806F06BF900BFAFF30080B2
:10270800FFFFFFFFFFFFFFFFD9350300CC290600BD
:10271800284A0500B028060098290600D429060092
:1027280070B584B0002863D004460D4631F022FE0F
:10273800002851D1EFF31186202383F31288BFF3C9
:102748006F8F3B4833F0F2FCC0B3394833F014FDC7
:10275800D4F8343113F0060F1BD105BBD4F81C5143
:1027680015B343F00403C4F83431002204F5927021
:10277800114633F007FB9FED2C7B002331468DED8E
:10278800007B2B4804F59672029333F06DFB04B07E
:1027980070BD43F00402C4F83421002DE5D043F0A5
:1027A8000C03C4F83431E0E7214833F0CDFC58B3CA
:1027B80086F31188BFF36F8F2846E8E788231D4A00
:1027C8001D491E4807F026FD19491D4807F022FD3E
:1027D8008821184806F0FCF81A49184840F2663370
:1027E800194A07F017FD40F26631174806F0F0F86D
:1027F8001649124840F26533134A07F00BFD40F2C0
:102808006531114806F0E4F84FF49A73094A104903
:102818000A4807F0FFFC06490E4807F0FBFC4FF496
:102828009A71044806F0D4F8FFFFFFFFFFFFFFFF8F
:10283800D0EA002088840500B8840500284A0500ED
:10284800D0840500AC9E0500B0280600CC290600FF
:10285800E8840500008505002DE9F04F85B0119D3D
:1028680004460F2D88461F46DDF838A0DDF84CB029
:1028780000F08C8005F110011E2900F28B800421E4
:1028880000269FED5D7B129B073222F007096173DA
:1028980004F168014A4684ED067B2373C4E91A11E2
:1028A800A573AA214046A660E67350F094FC4FF049
:1028B800F03108EB0905C8F80010204629460FF04A
:1028C800FDFF8446109B0CF10702C4E92E8922F013
:1028D800070202930F9BAD1ACDE900A341463B4680
:1028E800C4F8C02020462A4610F034FD0F9BC4E9E6
:1028F800217AC4F88C30109B666684F88060C4F82E
:102908009030EFF31188202383F31288BFF36F8F81
:102918003B4833F00BFC00285FD03A4F384833F07F
:102928002BFCFB6A3648C4F89430FC6233F00CFC8C
:10293800002842D088F31188BFF36F8FBBF1000FD6
:1029480019D01F22594604F1980050F090FCBA683B
:1029580084F8B760A2B1D2F8C40000230121C4F8FA
:10296800C4002846C4E90E33C4E90C3384F838108F
:1029780005B0BDE8F08FBA6884F898B0002AEAD1AB
:102988002846C4F8C42005B0BDE8F08F1E498B4224
:102998003FF475AF40F24B231C4A1D491D4807F010
:1029A80039FC29461C486FF00F030E2207F032FC51
:1029B80040F24B21154806F00BF84FF49A73174A6A
:1029C8001749144807F026FC0D49164807F022FC61
:1029D8004FF49A71114805F0FBFF88230F4A1249FA
:1029E8000C4807F017FC0649104807F013FC88212B
:1029F8000A4805F0EDFF00BF0000000000000000DD
:102A0800E8EA0020F84C0020392B0300F8290600DA
:102A18001C2A0600284A05009C2A0600888405000E
:102A2800E884050000850500B8840500D084050009
:102A38002DE9F04F2DED028B054683B0EFF311879A
:102A48004FF0200B8BF31288BFF36F8F6C4833F075
:102A58006DFB002800F0A080DFF8C481684833F0DF
:102A68008BFBD8F80040DFF8BC914445C9F800500A
:102A780000F08F80002C00F0AD80CDF804B09FED01
:102A88005E8BDFF898B1DFF878A102E0002C00F047
:102A9800AE80D4E90462E917B54271EB020052DB5B
:102AA800DBE90021921941EBE671204684ED048BA5
:102AB800CBE9002133F05AFC504633F045FB00289F
:102AC80078D087F31188BFF36F8F2046A2689047AC
:102AD800EFF31187019B83F31288BFF36F8F504682
:102AE80033F024FB002857D0504633F045FBD9F883
:102AF8000050D8F80040AD1B4445C9F80050C5D176
:102B080000216FF00040DBF80020C9F800105219CE
:102B1800CBF80020DBF8042042EBE572CBF8042068
:102B2800002124F069F9364833F00EFB002841D023
:102B380087F31188BFF36F8F03B0BDEC028BBDE83C
:102B4800F04F33F07BBA761B62EB010226616261BB
:102B5800D8F800400022C9F80020DBF800205219FC
:102B6800CBF80020DBF8042042EB01024445CBF807
:102B780004200BD054B1D4E90403B0F1004F73F131
:102B8800000203DA002BB8BF0020C9E76FF000404D
:102B9800C6E7DFF888B0B3E788231A4A1A491B4802
:102BA80007F038FB16491A4807F034FB8821154806
:102BB80005F00EFF4FF49A73124A1649134807F0AE
:102BC80029FB0F49144807F025FB4FF49A710D486B
:102BD80005F0FEFE114A6FF00040D2E900315B19A2
:102BE80041EBE571C2E90031C9F8004098E7E917FF
:102BF800B0E700BFAFF30080000000000000000055
:102C0800F0EA002088840500B8840500284A0500F9
:102C1800D0840500E884050000850500A84F002041
:102C280044110020ECEA002000239FED077BC0E957
:102C3800081200F1180280ED007BC0E90622036348
:102C480043637047AFF300800000000000000000FD
:102C5800704700BFF0B583B0244D00AF2B6803F078
:102C68000703022B2AD96C468CB06B4640F202410E
:102C78001A461F48B9801F4E1F4958611F481962DC
:102C88003E6007F10801986111E90300586219854F
:102C98001B481C49D96142F8100F00234FF45351C7
:102CA80028460AF0CBFB2B68A54603F00703022B46
:102CB80004D903212846144A0AF06AFB13480AF08B
:102CC800D7F9044620B92B6803F00703022B03D871
:102CD80020460C37BD46F0BD03210D4A03480AF0D3
:102CE80057FB20460C37BD46F0BD00BFEC12002054
:102CF8000849050000020103BC4905009449050084
:102D080005000003544905005C490500E049050039
:102D18007849050070B568B304681E4D23782A68A1
:102D2800012B0AD012F0060F00D170BD02212846EF
:102D3800BDE87040184A0AF045BB02F00702022AB3
:102D480012D8E168154B207A196003F043FB00287C
:102D5800EBD02B685B07E8D0BDE870400346012143
:102D68000F4A0C480AF02EBB032128460D4A0AF0E8
:102D78000FFBE6E70C4940F25B330C4A0C4807F0BE
:102D880049FA0C4807F046FA40F25B31074805F06B
:102D98001FFE00BF201300208C4A05008851002028
:102DA8006C4A05005C4A0500144A0500E449050020
:102DB800284A0500484A05002DE9F0474FF0FF383A
:102DC8004FF0FF39394D3A4E3A4C3B4F8AB02046C6
:102DD800CDE9008903AA02A91CF038FE50B12B687E
:102DE80059074FD1002383F31188BFF36F8F032353
:102DF800184602DF9DF80C30042B27D0052BE6D0AF
:102E0800032B09D02A6812F0060FE0D002212B4AC2
:102E180026480AF0D7FADAE700F072FE3378002B7A
:102E2800D5D000F03DFF00230220337004F09CF859
:102E38000028CCD02B685A072FD1002383F31188A0
:102E4800BFF36F8F0323184602DFC0E700F05EFE72
:102E58003378012BBBD04FF0010A86F800A000F0B0
:102E6800F1FF022004F00EF80028B0D02B685B07B1
:102E7800E3D0E6220346009251463A460B480AF050
:102E8800BDFADAE74FF0C30C03463A46012107487A
:102E9800CDF800C00AF0B2FAA4E7D52203460092A2
:102EA80001213A4601480AF0A9FAC6E72013002092
:102EB800D01100201C440500B44A0500D84A05007A
:102EC800F0B5594C594D5A4E87B04FF0FF324FF07C
:102ED800FF33284603A91CF03DFD50B123685A076B
:102EE8004FD1002383F31188BFF36F8F0323184654
:102EF80002DF40F6CD420023039804A91CF0C0FC71
:102F080050B123685B0745D1002383F31188BFF3D1
:102F18006F8F0323184602DF9DF81430012B42D12E
:102F280040F69912049B93421BD040F6CD4293423F
:102F380009D0226812F0060FC7D002213D4A3A484C
:102F48000AF040FAC1E73C4B1B78002B40D02368BD
:102F580013F0060FB9D00221384A33480AF018FA9C
:102F6800B3E7354B187820B3012842D0236813F013
:102F7800060FAAD002210346314A2B480AF022FA4A
:102F8800A3E77D27034632460121204600970AF031
:102F980035FAA6E7822703463246012120460097E4
:102FA8000AF02CFAB0E7236813F0060F35D107B002
:102FB800F0BD03F07BFA002887D0236813F0060FD2
:102FC80083D0022103461F4A17480AF0FBF97CE721
:102FD80000F0DAFD00283FF478AF236813F0060FFD
:102FE8003FF473AF02210346174A0F480AF0EAF983
:102FF8006BE7164B0020196803F0ECF900283FF442
:1030080064AF236813F0060F3FF45FAF0221034655
:103018000F4A05480AF0D6F957E702210D4A024837
:103028000AF0B6F907B0F0BD2013002010440500DF
:10303800B44A05008C4B0500D0110020504B050008
:10304800384B0500184B0500684B050088510020D7
:103058006C4A0500004B050038B5124B1A7802B1CE
:1030680038BD114603F07CFA0F4D044650B12B6869
:10307800834207D00D4814F18C0F036803F0060350
:1030880008D00BB92C6038BD02212346084A0AF043
:1030980099F9F7E7002BF5D00221064A0AF078F9EA
:1030A800F0E700BFD01100200C50002020130020B2
:1030B800CC4B0500B04B05002DE9F04389B008AFB3
:1030C80005F0B4FD68B10346A9480268560740F008
:1030D800BC82002383F31188BFF36F8F0323184644
:1030E80002DFFFF7B7FD034660B1A1480268550744
:1030F80040F08B82002383F31188BFF36F8F032383
:10310800184602DF01F082FC034660B19848026865
:10311800540740F08A82002383F31188BFF36F8F2E
:103128000323184602DF00F0B3FE034660B190485F
:103138000268510740F08182002383F31188BFF3AE
:103148006F8F0323184602DF032000F097FE034623
:1031580060B187480268520740F05F82002383F31A
:103168001188BFF36F8F0323184602DF4FF0000862
:103178004FF00009002405254FF40062CDE90689C7
:10318800CDE90354CDE901447A4B7B4900947B484F
:1031980031F06AF97A4931F0F7F80446002800F06E
:1031A8004481734D2B685E0740F0F081002383F360
:1031B8001188BFF36F8F0323184602DF41F69A1276
:1031C8000023704970481CF0E9FC0446002800F010
:1031D8001781674D2B685E0740F0AD81002383F3AC
:1031E8001188BFF36F8F0323184602DF674803F087
:1031F80031FA0021654803F061FA044660B15C4D7C
:103208002B685E0740F0DA80002383F31188BFF350
:103218006F8F0323184602DF08201AF089FD002269
:103228005B4900F0F5FC044658B1514D2B6859072D
:103238007BD1002383F31188BFF36F8F03231846D4
:1032480002DF4FF0030C534D534C544E0FCC6960C2
:10325800218828602982A17855F80B0CA974AA60E6
:10326800EB6086F800C003684FF65861736001F0A0
:1032780063FF0446002800F0F7803D4D2B685B078C
:1032880040F0AF81002484F31188BFF36F8F0323CC
:10329800184602DF254601230020414A414903F030
:1032A80041F8041EC0F2F980204600242A46009006
:1032B8003B4B20463949019401F070FF054658B14F
:1032C8002B4E33685A070CD1002383F31188BFF3C0
:1032D8006F8F0323184602DF00200437BD46BDE880
:1032E800F083E84688B0304A4FF40070C8F81420DC
:1032F8002E4A2F49C8F818204246A8F81C0042F860
:10330800101F4FF4E251234630460AF097F833680D
:10331800C5465B07D8D04FF41A742B4601213046B6
:10332800244A00940AF06AF8CEE76E4688B04FF453
:10333800007132461C48B18370611D491E48B06156
:1033480042F8101F00234FF4E25128460AF076F89D
:103358002B68B5465A073FF46CAF40F25B2623460C
:1033680001212846134A00960AF048F861E700BF91
:1033780020130020C92E0000A0040120501F0020A7
:10338800F84B050010440500A0430500B04F00208D
:10339800007701000B0700207C4D050048500020F5
:1033A80038500020F8060020785C0500284E0500FB
:1033B80003000001B44A0500584D05006E4688B068
:1033C8004FF400713246AB48B1837061AA49AB48EB
:1033D800B06142F8101F002328464FF4E2510AF06A
:1033E8002DF82B68B54658073FF40EAF40F2562625
:1033F800234601212846A24A009609F0FFFF03E769
:1034080041F69A1200239F499F481CF0C7FB0446C7
:10341800002864D09D4D2B6858073FF4DFAE01218A
:1034280028469B4A09F0B4FF8AE04FF40062CDE9D0
:103438000350CDE901000090CDE90689954B9649E6
:10344800964831F011F8964930F09EFF044600285E
:103458005BD08E4D2B6858073FF4A8AE0121284653
:10346800904A09F095FF96E04FF47F024FF0130C55
:10347800D2F8502406F10804CDE9004C0121A5F149
:103488000B03120A02F044FE041EC0F2E68055F84F
:103498000B3C651C9B887370FDE67C4E33685807AF
:1034A80009D1002383F31188BFF36F8F03221046DD
:1034B80002DF1846F9E60121234630467A4A09F028
:1034C80081FF33685907ECD040F2632C2346012171
:1034D80030466B4ACDF800C009F090FFE1E741F6AD
:1034E8009A120023714972481CF058FB04460028C0
:1034F8003FF47CAE654D2B6859073FF46FAE012150
:1035080028466C4A09F044FF1AE041F69A12002353
:1035180069496A481CF042FB044600283FF44EAE55
:103528005A4D2B6859073FF441AE01212846644A99
:1035380009F02EFF2FE001212846624A09F028FFF2
:103548002B685A073FF44AAE6E4688B04FF40071B4
:1035580032464848B183706147495B48B06142F8D8
:10356800101F00234FF4E251484809F067FF2B6809
:10357800B5465B073FF432AE4FF41475234601217C
:103588003F4A4248009509F039FF27E601212846BD
:103598004E4A09F0FDFE2B685A073FF407AE6E4607
:1035A80088B04FF4007132463248B18370613249B5
:1035B8004748B06142F8101F00234FF4E2513348E6
:1035C80009F03CFF2B68B5465B073FF4EFAD40F2CE
:1035D8004D25234601212A4A2C48009509F00EFF63
:1035E800E4E5012103463B4A284609F0EBFE2B6837
:1035F8005D073FF447AE4FF4187523460121204A72
:103608002248009509F0FAFE3CE64FF410740121B7
:103618001B4A009409F0F2FE6CE540F24A240121AD
:10362800174A009409F0EAFE98E540F24324012184
:10363800134A009409F0E2FE6DE540F246240121A8
:103648000F4A009409F0DAFE76E540F23D240121A4
:103658000B4A009409F0D2FE3BE50C4D2B685E073F
:103668003FF410AE0121234628461B4A09F0AAFE62
:10367800BDE700BF785C050003000001384D050078
:10368800B44A05001C440500C84305002013002067
:10369800D04C0500C12D0000A0FC0020381E0020E1
:1036A800284C05003C4C0500F44D05000444050079
:1036B8008C430500EC4C050028440500DC4305005C
:1036C800644C0500B44C05000C4D0500044C050085
:1036D800884C0500904D0500C04D05002DE9F04FC0
:1036E8004FF0000B5C46ADF5757DDFF8E092AE4E0D
:1036F80002AF01214FF0FF324FF0FF33AB4833F0F8
:103708003DFD054658B1D9F800305B077BD1002351
:1037180083F31188BFF36F8F0323184602DF4FF03E
:10372800FF3239464FF0FF33A1482FF045FB0546DD
:1037380060B1D9F80030590740F08880002383F33E
:103748001188BFF36F8F0323184602DF337D002BE8
:1037580046D000220023974810F08EFC044600282B
:1037680000F0BC804FF0020ED7F8008000F1180579
:1037780008F1180CBCE80F004FF0000A0FC5BCE8B0
:103788000F000FC59CE80F0085E80F00736AB26947
:103798002362B36984F818E02363E36902FB03F347
:1037A800854AA2FB03235B0DA362336A84F834A025
:1037B800A363824B1B68002B40F09980404621464A
:1037C80000F086FD054658B1D9F800305A0760D197
:1037D800002383F31188BFF36F8F0323184602DF9A
:1037E80038680BF1010B10F02FFDBBF57A7F72DA08
:1037F800337D002B3FF47DAF2046FFF72DFC20469C
:1038080010F022FD75E7E84688B002AB6C4A4FF429
:1038180000715A616B4A99839A611A466A4B42F859
:10382800103F002369484FF4E25109F007FED9F828
:103838000030C54658073FF46AAF93222B460092E2
:103848000121634A614809F0D9FD60E7E84688B07C
:1038580002AB5B4A4FF400715A615E4A99839A61E0
:103868001A46594B42F8103F00234FF4E25157488B
:1038780009F0E4FDD9F80030C5465A073FF45EAFB9
:1038880099222B4600920121514A504809F0B6FD71
:1038980054E7E84688B002AB494A4FF400715A61D0
:1038A8004D4A99839A611A46474B42F8103F0023C4
:1038B8004FF4E251454809F0C1FDD9F80030C5463A
:1038C8005B0785D0CA222B4600920121404A3F4817
:1038D80009F094FD7CE74FF0000B89E7D9F8003038
:1038E80013F0060F48D1386810F0AEFC01E73B4AE8
:1038F800C7F804A04FF47071009207F10800384A25
:1039080023F050FB58B1D9F800305B0743D10023AE
:1039180083F31188BFF36F8F0323184602DF3B68D8
:103928003A1DDB684FF47071009207F1080010220D
:1039380023F0ECFB58B1D9F800305D0722D1002301
:1039480083F31188BFF36F8F0323184602DFD7E98B
:103958000082B8F8103093423FF430AFD9F8001025
:1039680049073FF42BAF0121009218481D4A09F07E
:1039780045FDD7F8008021E702211B4A134809F0CA
:1039880007FDB0E7C122034600920121104A0F4803
:1039980009F034FDD3E7BC220346009201210C4A0A
:1039A8000A4809F02BFDB2E7F8510020A0070020D3
:1039B800FC160020E419002083DE1B4394510020EC
:1039C800785C0500544E05000300000160120020D9
:1039D800B44A0500684E0500E44E05008C510020ED
:1039E80098510020B44E05009C4E05002DE9F04189
:1039F8008AB00AAF03F02AFFEC46254C04F1100EFA
:103A0800BEE80F00ACE80F00BEE80F00ACE80F00FE
:103A1800DEF80030CCF8003094E80F0000F05AFED1
:103A280058B11C4E33685A070DD1002383F311880F
:103A3800BFF36F8F0323184602DF002384F830306A
:103A4800BD46BDE8F081E84688B005460AAB124A93
:103A58004FF400705A61114A11499A611A469883C5
:103A680042F8101F00234FF4E251304609F0E6FCFB
:103A78003368C5465B07D8D04FF4F97C2B46012143
:103A88003046084ACDF800C009F0B8FCCDE700BFC1
:103A9800F851002060120020785C0500F44E050003
:103AA80003000001B44A050010B5114B044693F811
:103AB800303053B90F48036813F0060F0DD1204674
:103AC8000D490CF0BBFB002010BDFFF78FFF20460F
:103AD80009490CF0B3FB002010BD084A022109F087
:103AE80057FC204604490CF0A9FB002010BD00BF7C
:103AF800F851002060120020284F05000C4F0500E7
:103B08000021014833F0DABC2C520020014833F080
:103B1800D1BC00BF2C520020024618B9164B1860C1
:103B28000020704710B54BF68033B7EE000A1249F3
:103B3800124882B092B223F065FA034658B1104891
:103B48000268520710D1002383F31188BFF36F8FE7
:103B58000323184602DF084B1B68602B94BF002024
:103B68006FF00B0002B010BDFF240121054A00943C
:103B780009F044FCE7E700BF945100209851002069
:103B880060120020B44A050038B51C4C1C4D206852
:103B98002B6803F0070360B1B0F57A6F24D30020D7
:103BA800022B206022D8FFF7B7FF044690B92046C1
:103BB80038BD4FF47A70022B2060F4D903210346F4
:103BC800104A0F4809F0FEFB2068FFF7A5FF0446DE
:103BD8000028ECD02B685B07E9D001210A4A084885
:103BE80009F0D6FB204638BD4000E4E7032128460B
:103BF800064A09F0CDFB2068D5E700BF90510020A8
:103C080060120020404F0500684F0500584F05001E
:103C1800B0F57A5F08B513D045F6C05398420FD077
:103C28004BF6803398420BD060B11A4A1368590793
:103C380026D0012103461046174A09F0C3FB1FE0AE
:103C4800164B5862B2F57A5F0FD045F6C0539A42C8
:103C58000BD04BF680339A4207D06AB919B10122CA
:103C68000E4B99611A75002008BD01200B4BDA60D4
:103C780018710029F3D1F6E7064803685B0702D1FB
:103C88006FF0150008BD01211346034A09F09AFB9D
:103C9800F6E700BF60120020884F0500F8510020A9
:103CA8002DE9F0418AB00122514E524D33680AAFD6
:103CB80003F00703022B2A705AD8EC464E4C0FCC5F
:103CC800ACE80F000FCCACE80F002368CCF800304C
:103CD80095E80F0000F060FD044650B133685807BE
:103CE80023D1002383F31188BFF36F8F0323184672
:103CF80002DF01242B7D85F830401BB13F4D296838
:103D0800002946D03E493F4803F076FD50B133685C
:103D18005B0734D1002383F31188BFF36F8F03232C
:103D2800184602DFBD46BDE8F081E84688B00AAB18
:103D3800354A4FF400705A61344A35499A611A4637
:103D4800988342F8101F00234FF4E251284809F0E5
:103D580075FB3368C5465907C3D040F2BF1C2346DC
:103D680001212C4A2248CDF800C009F047FBB8E7EA
:103D78002B7F03213046284A09F024FB9DE74FF4A6
:103D8800E77403460121234A1948009409F036FBD9
:103D9800C0E7002200234FF0030CCDE90623CDE94C
:103DA80001110491009142F6F8221C4B1C49CDF8F0
:103DB8000CC01C4830F058FB28601B4930F0E4FA6E
:103DC80000289FD033685A0708D1002383F311884D
:103DD800BFF36F8F0323184602DF93E740F2C9153C
:103DE800034621460B4A0248009509F007FBECE719
:103DF80060120020F8510020085200203C52002098
:103E0800FC16002034170020785C0500D44F05000C
:103E180003000001B44A0500A84F0500E53600007C
:103E2800A00C012068200020EC4F050010B50446C6
:103E3800FFF736FF204602490CF000FA002010BDBB
:103E4800F44F0500074B93F830302BB90648036848
:103E580013F0060F02D17047FFF7C8BD0221034ACD
:103E680009F096BAF8510020601200200C4F0500A6
:103E7800014B5879704700BFF851002001460222D3
:103E8800024B002019621A77704700BFF8510020D2
:103E980010B503F04DFA30B10446104803685A07CC
:103EA80015D1204610BD012103F0DEFC044648B1BF
:103EB8000A4803685B07F4D001212346084A09F041
:103EC80081FAEEE7074833F0EFFA204610BD0121EA
:103ED8002346054A09F076FA204610BD60120020F4
:103EE800345005002C5200200C500500704700BFCC
:103EF8000021034B4FF47072024819704FF06BB9F0
:103F08006AFC00204452002001482FF0D1BE00BFB7
:103F1800BC070020274B93F8102C82423ED0F0B506
:103F280083B0254D83F8100C2B68044603F0070373
:103F3800022B02AF13D8032C2AD0032002F0EAFF89
:103F480050B12B685B072AD1002383F31188BFF394
:103F58006F8F0323184602DF0437BD46F0BD174BA9
:103F68006E4688B053F8201002AB154A4FF4007023
:103F78005A611A4699611349988342F8101F002321
:103F88004FF4E651284609F059FA032CB546D4D126
:103F9800204602F077FF0028DED0D2E770474FF4C2
:103FA800C77403460121084A0348009409F026FA19
:103FB800CAE700BF04A6002058120020C856050012
:103FC800A851050003000001B44A050038B50024D3
:103FD8000546064B204683F81C4CFFF79BFF2846F6
:103FE80003490CF02BF9204638BD00BF04A6002079
:103FF800BC510500012208B5034B044983F80C2C79
:104008000CF01CF9002008BD04A60020E0510500B2
:1040180098B50C4A00AF88B06B4652F820104FF4A0
:10402800007C1A46084C0948C3E90541A3F81CC09E
:104038004FF4E65142F8100F0023054809F0FEF945
:10404800BD4698BDD856050008520500030000017A
:104058005812002010B40F490F4C91F800CC226878
:1040680084450CD002F00702022A81F8000C02D81D
:104078005DF8044B70475DF8044BFFF7C9BF12F0B9
:10408800060FF5D002212046044A5DF8044B09F0DA
:104098007FB900BF04A60020581200201C5205005A
:1040A80008B5084B93F80C2C3AB10122064983F85D
:1040B8001C2C0CF0C3F8002008BD04490CF0BEF815
:1040C800002008BD04A600205452050078520500BF
:1040D80010B50B4A92F81C3C23B10A490CF0AEF813
:1040E800002010BD0446184682F80C3CA2F8023C99
:1040F800FFF7B0FF204604490CF0A0F8002010BDDF
:1041080004A60020A8520500DC52050010B504469C
:10411800054832F0D1FC05482FF0CAFD2046044975
:104128000CF08CF8002010BD90140020BC07002073
:10413800045305002DE9F0432DED028B042983B0CB
:1041480074D1546816463D4B22789A5C520771D553
:10415800B26812789B5C5B0764D50A220021074687
:1041680020464DF033F80A2204460021B0684DF08D
:104178002DF800210546F0684CF008FEB5EEC00A9F
:10418800F1EE10FAB0EE408A1FFA84F81FFA85F9AA
:1041980041D9F7EE007AB4EEE70AF1EE10FA3ADC0C
:1041A800AEB2A4B233462246384625490CF046F84A
:1041B800B0EE480A49464046FCF796FB10F1100F4E
:1041C80005461AD09DB918EE100AFCF725F9804665
:1041D8008946334622463846CDE9008919490CF00C
:1041E8002DF8284603B0BDEC028BBDE8F0832A46C3
:1041F800384615490CF022F8E5E7144832F05CFC23
:1042080013482FF055FDB0EE480A49464046FCF7E2
:104218006BFB0546D6E738460E490CF051F86FF0AF
:104228001505DEE70C490CF04BF8F8E70B490CF0E4
:1042380047F8F4E70A490CF043F8F0E725A7060029
:10424800C0530500FC530500E053050090140020FE
:10425800BC0700209453050078530500105305004F
:104268005C53050030B5914287B008D10C9A1360B1
:104278000D9B0A9A1A600024204607B030BD1446E8
:104288004FF470751A460D9B049403930B9B02958B
:10429800CDE9001302210A9B22F0D2FF044618B987
:1042A800DDE90B231A60E6E7044803685B07E3D0FF
:1042B80001212346024A09F085F8DDE7841300202E
:1042C80010570500014B93F83000704720CB0020B1
:1042D8002DE9F04FADF2B47DB34A04AF147D002C44
:1042E80000F08B818346002800F0748188460029FD
:1042F80000F070811278012A40F0C98100219BF8F2
:104308001830C068012BD8F80CA0B861F96140F0EA
:10431800688198F81810022940F06381DBF838901A
:10432800B9F1000F00F009814846FCF779F9044615
:10433800C3B2DBF82810BBF8105001FB04F4A54207
:10434800C0F08581D8F83840B8F81260D8F82850FD
:10435800002C00F0F480FB602046FCF761F900FBBC
:1043680005F5AE42FB68C0F082814E46012E38BF8B
:1043780001260025BB6050E0DBF828C00CFB0503D4
:10438800D8F82020DBF82010CDF800C040F6540CF7
:1043980007F11C00039007F11800029007F57870E8
:1043A800019082480CFB0500FFF75CFF814658B17D
:1043B8007F4B1B685B0776D1002383F31188BFF31B
:1043C8006F8F0323184602DFFB69D8F83020FB60A3
:1043D800194607F11603B869CDE901A3BBF82830DF
:1043E80000932B460DF0D2FE814658B1704B1B68E6
:1043F80059077DD1002383F31188BFF36F8F0323FF
:10440800184602DFFB8A9A4404F001032B4464082F
:104418004FEA5606DDB22CD05EB306EA0403D8078D
:10442800F2D59BF83430DBF80C00002BA4D04FF405
:10443800707307F12009BBF81010CDE901939BF8C0
:104448002C300093BA682B4622F0AAFEF86060B1BF
:1044580057480368590740F0D780002383F3118831
:10446800BFF36F8F0323184602DF4B46DBF828C0E3
:1044780086E7FC8AD8F83800C8F82840DBF83830D6
:104488001840C8F8380018B1FCF7CAF800FB04F463
:10449800214608F10C0010F0D3F8002007F2A477A9
:1044A800BD46BDE8F08FC7F80CD088B004AB4FF418
:1044B80000729A831A463F4959613F4999613F4BB7
:1044C80042F8103F00233A484FF4E25108F0B6FF93
:1044D800374BD7F80CD01B6858073FF46DAFC02294
:1044E8004B4600920121364A314808F087FF63E7BE
:1044F800C7F80CD088B004AB4FF400729A831A4600
:104508002C4959612F4999612C4B42F8103F0023DF
:104518004FF4E251264808F091FF254BD7F80CD00C
:104528001B685A073FF466AFC5224B46009201212B
:10453800234A1F4808F062FF5CE71C46F9E6AE42D2
:10454800C0F095804E46012E38BF012619F00104AF
:104558007FF40FAF2021012403E014EA090F7FF450
:1045680008AF01394FEA4404F7D1114C22685307C8
:1045780034D0154A0121204608F00AFF2268560760
:104588002CD0DBF8383001212046104A08F01AFFF9
:1045980023685D0722D0D8F83830012120460C4A1C
:1045A80008F010FF1AE000BF20CB002078BA0020E6
:1045B80084130020785C0500A4580500030000015E
:1045C800B44A0500E44E0500245805004C5805007F
:1045D80068580500344803685D0743D16FF015003B
:1045E8005CE7314802685407F8D098F81840012170
:1045F8002E4A009408F002FFF0E72B4803685E0794
:1046080040D16FF0050049E7C7F804D088B004AB83
:104618004FF400729A831A462549596125499961D0
:10462800254B42F8103F00234FF4E25108F006FFF3
:104638001D48D7F804D003685A073FF40EAFB322D9
:10464800FB68012100921D4A08F0D8FE05E71648CC
:1046580003685907C2D001212B46194A009408F073
:10466800CDFEBBE70121174A08F092FEB6E70E48D7
:1046780003685A07B2D001213346134A009508F05F
:10468800BDFEABE70121114A08F082FEB9E70648F2
:1046980003685B0702D16FF01200FFE60B7E012171
:1046A8000B4A08F08FFEF6E7841300207C570500BC
:1046B800785C05008458050003000001B44A050031
:1046C800CC57050058570500F85705003457050022
:1046D800CC58050084B010B502AC84E80F00284C13
:1046E8009DF808302278934227D1012B0DD0254818
:1046F8000268520704D10020BDE8104004B070479A
:104708000121214A08F05EFEF5E79DF81C2032B130
:10471800227DF2B10DF0E8FD0028EDD120759DF85D
:104728000C3033B12379DBB10DF00EFE0028E3D154
:104738002071002384F83030DDE7124803685C07F5
:1047480002D16FF01200D7E70121104A08F020FECD
:10475800F7E70C48026851070CD16FF07700CBE7F8
:104768000848036813F0060FF7D00221084A08F03A
:104778000FFEF2E7074A194608F00AFEEDE700BF08
:1047880020CB002084130020CC580500E4580500F5
:10479800545905001C59050084B02DE9F04784B030
:1047A8000CAC84E80F009DF830309DF84450012B84
:1047B8009DF84C609DF834809DF835900FD06E4878
:1047C8000268550706D10024204604B0BDE8F0472A
:1047D80004B070470121694A08F0F4FDF3E7684F17
:1047E8003B78012B1ED1AA4645BBB8F1000F30D14A
:1047F800022E00F2AE80B9F1010F00F2928001257D
:104808005F4C0DF1300CBCE80F000FC4BCE80F0082
:104818000FC4BCE80F000FC4DCF80030236087F831
:104828003050D0E7002142F2107208460DF0BCFD6E
:1048380004460028C8D1AA46002DD6D03B7D002BBF
:1048480038D04D48036813F0060F4CD16FF0770449
:10485800BAE73B79002B72D14B4642F21072102115
:10486800BDF83C000DF07CFE04460028ACD1022EB9
:104878006FD8002D3CD0002E3AD04FF00008414DA3
:1048880003E0B3424FF0010852DA284622F0BEFC9A
:1048980005F65405044608F101030028F1D036480E
:1048A80003685A0790D001214346374A009408F01C
:1048B800A5FD89E70DF10E03019342F21072102154
:1048C800129BBDF8540000960DF09AFD044600288E
:1048D8007FF47AAFB8F1000FBBD1022E39D8C246A7
:1048E800002ECAD187E70221284A08F051FDADE71A
:1048F800B9F1010F15D8B9F1000F80D0244822F082
:1049080085FC044600283FF47AAF1B4803685B0720
:104918003FF45AAF002301211E4A009408F06EFDAF
:1049280052E7154803685C071FD16FF015044BE781
:10493800B9F1010FF5D8BAF1000FDCD15FE70E48E5
:10494800036813F0060F81D00221134A08F020FDF6
:104958007CE7094803685907E7D002243346012158
:104968000E4A009408F04AFDDFE701214B460C4A45
:10497800009108F043FDD8E784130020CC580500C7
:1049880020CB002078BA00200C5A05008C5905006D
:1049980024B20020885A0500B4590500DC590500E6
:1049A800585A050098B170B5144D82B02B685A0753
:1049B80010D1002383F31188BFF36F8F03231846A8
:1049C80002DF0F4802B0BDE87040FDF7C1BC0C48DB
:1049D800FDF7BEBC0446012103460A4A284608F0F2
:1049E800F1FC2B685B07E4D040F225162346012131
:1049F8002846054A009608F001FDDAE7C0120020B3
:104A0800A0180020105B0500B44A0500F0B595B069
:104A18006C4806AF15F094FE044618B120463C37A2
:104A2800BD46F0BD40F6CD42002367482EF03AFD62
:104A3800044640B1654803685A07EFD00121644A2B
:104A480008F0A6FCEAE7014607F1180241F2010066
:104A580015F00EFB04460028E0D1B8695B4EC56826
:104A68003368B5F8052003F00703592A40F08C8015
:104A7800022B66D80FF0E8FB00203946386016F0A4
:104A8800F1F83968012979D13946381D16F0EAF864
:104A98003B682BB33B79032B00F28B80DFE803F0F4
:104AA8002638300207F10C052B464A4A07CA03C3C9
:104AB8001A80BB7A05957A791E210492BA7907F192
:104AC80018000392FA7902923A7A01927A7A00925D
:104AD800414A4CF02FF9336803F00703022B19D829
:104AE80000F020FC20463C37BD46F0BD3B4B93E828
:104AF80003000B0C07F10C05F8603982BB74D8E78A
:104B080007F10C052B46364A07CA03C31A80D0E7BB
:104B1800344BECE76D4688B006AB4FF400701A468C
:104B2800314907F11806C3E905163049988342F858
:104B3800101F00234FF4E651244808F07FFCAD46CF
:104B4800CEE7687815F0F0F969786A886D468AB01A
:104B580006ABC3E906014FF400711A621A462448ED
:104B680099845861234B42F8103F4FF43351304633
:104B7800234608F063FCAD46B8697BE733685B07FA
:104B880008D16FF00B0449E763B90FF05DFB4FF0F4
:104B9800FF3443E701230091174A19460B4808F0F0
:104BA8002DFCEEE701213046144A08F0F1FBB86904
:104BB800EBE707F10C050A212846114A4CF0BAF830
:104BC80077E700BFAD490000A0180020C012002000
:104BD800AC5B0500945B0500505B0500385B050085
:104BE800A05B0500405B05004C5C0500030000016C
:104BF800C05B050005000001145C0500FC5B0500B6
:104C0800485B050000232DE9F0419AB006AFC7E9DB
:104C18000433C7E90C33C7E90633C7E90833C7E9E2
:104C28000E33C7E91033BB62BB85BB64A7F84C30B1
:104C3800002800F0A080037804460D46032B00F2FC
:104C4800A380DFE803F03F484A023E1D3346524A3C
:104C580007CA03C31A80A379059662781E210492B5
:104C6800A2780392E27802922279019260794B4C01
:104C780000904B4A07F110004CF05CF8236803F0F1
:104C88000703022B15D9E84688B006AB4FF400712C
:104C980007F110029A611A46424899835861424BBB
:104CA80042F8103F00234FF4E651204608F0C6FBB7
:104CB800C546002D4AD02B78032B5FD8DFE803F0D8
:104CC80051594B14394B93E803000B0C3E1D786087
:104CD8003981BB72BFE7364BF5E73E1D3346354A8F
:104CE80007CA03C31A80B6E733462B4A07CA03C369
:104CF8001A80AB7905966A781E210492AA7807F182
:104D080030000392EA7802922A7901926D79244A56
:104D180000954CF00FF8236803F00703022B15D910
:104D28006C4688B006AB4FF400701A4607F13001A4
:104D38009961214D1C495D61988342F8101F002339
:104D48004FF4E651154808F079FBA5460020503786
:104D5800BD46BDE8F0813346164A07CA03C31A8028
:104D6800C7E7124B93E803000B0C78603981BB72DC
:104D7800BFE70F4BF6E76FF01500E8E70A2130466A
:104D88000E4A4BF0D7FFB4E73E1D0A2130460B4AC6
:104D98004BF0D0FF5FE700BF945B0500C412002012
:104DA800505B05006C5C050003000001385B0500E2
:104DB800405B0500A05B05007C5C0500485B0500C6
:104DC8002DE9F04192B000220023B2480DF10F0105
:104DD8002DF0F2FF30B1B04803685C0748D112B03B
:104DE800BDE8F081AD482EF0F7F804AC00220023AE
:104DF8002146AA482DF0E0FF9DF80F6020B9A84B86
:104E08001B78002B00F08180A64B53F82610002950
:104E180000F07B810023A44AA44D52F8262055F8BF
:104E28002600009316F006FF0446002861D1DFF83B
:104E38008C8255F8260058F8263003B39C4B08AFEF
:104E480039460994089316F015FF0446002800F027
:104E58008A80914D2B685E0740F0138113F0060F8E
:104E6800BDD002212346934A8B4808F0ABFAB6E737
:104E78000121914A08F08CFA12B0BDE8F08108AF20
:104E8800394655F8260016F0C3FD0446002840F0C0
:104E98009C8001460998FFF7B5FE0446002840F0BB
:104EA80094809DF80F207E4B394655F822001C70DF
:104EB800ADF820408DF8224016F05AFE00286BD13C
:104EC8009DF80F307D4A52F82320002A70D055F8FB
:104ED800230016F0CBFF0346002800F08D806E48B3
:104EE800026852073FF47BAF0121754A08F06AFA5D
:104EF80075E7694D2B685F07B0D001210346714AF9
:104F0800284608F05FFA2B68A8E7232294E80300F4
:104F18006D4F664D0093ADF81C100DF11808090C83
:104F280006908DF81E107A6019461A46C7E90233B2
:104F380055F826003B80BB70C7F8108016F07AFE43
:104F48000446002844D0544D2B68580740F0908000
:104F580013F0060F3FF443AF022123465B4A4E4845
:104F680008F030FA3BE75A4B58F8261053F8262039
:104F780055F8260016F0F2FE0446002880D0464D6B
:104F88002B6858073FF46AAF012123462846514A47
:104F980008F018FA2B6861E73F4A136859073FF48D
:104FA8001EAF0121034610464B4A08F00BFA16E7DC
:104FB800394C236803F00703022B7FF610AF032157
:104FC800464A354808F0E4F909E7334B1B6845E7DA
:104FD800394655F8260016F091FD044658B32E4D73
:104FE8002B685907B4D00121334628463C4A00941F
:104FF80008F004FA2B68ABE701269DF80F30394614
:1050080055F823008DF828300B90002200233548EE
:105018008DF820601AF098FB1F4C0028C9D023682F
:105028005B0768D1002383F31188BFF36F8F0323D5
:10503800184602DFBDE708AF394655F8260016F0D6
:10504800E7FC0446002853D141460998FFF7DAFDEA
:10505800044600284CD180239DF80F208DF82200AB
:10506800394655F82200ADF8203016F081FD25E7C5
:105078000121334628461C4A009408F0BFF92B68E2
:1050880066E701210346194A284608F09BF92B6870
:10509800E4E600BFC4160020C41200206C170020EC
:1050A8006BFC002094CB00208CCB00209CCB0020F4
:1050B8007800A000EC5D0500945C050084CB00201E
:1050C800445E0500685D0500F8070020285D0500BE
:1050D8007CCB0020C05D0500185E0500705E0500F1
:1050E800E45C05008C430500AC5C05008C5D0500A4
:1050F8000E4B1B682CE74FF4977503463146204644
:105108000B4A009508F07AF98CE7084D2B685A0786
:1051180002D16FF00504A1E601212846054A08F0EE
:1051280037F96FF005042B6898E600BFC412002019
:10513800B44A0500545D050038B504460D460FF025
:10514800EDFB012805D9204629460FF0EBFA00208F
:1051580038BD6FF00B0038BD00B59DF804E0B8B15C
:10516800B1B1ABB184460868904214D20CF830E073
:1051780000200A680CEBC20253700B680CEBC30CDE
:10518800029BCCF804300B6801330B605DF804FB1C
:105198006FF01500FAE76FF00B00F7E730B589B04C
:1051A8009DF834508DF80700002956D0002A7DD08C
:1051B8009DF80700494C44F82010494941F820203F
:1051C800484A494942F820300C9B484A41F8203067
:1051D800536840B3464C23F00403536004EB800447
:1051E8004DB3444D0DF10C0C0FCDACE80F002B68FE
:1051F8002246414903A8CCF8003016F04DFC04467D
:1052080000283BD1002200233C480DF107012DF076
:10521800CBFD00283CD13A493A482EF039FD00240C
:10522800204609B030BD324C43F00403536004EB10
:105238008004002DD5D122462F492C4816F02CFC8D
:1052480004460028DED0304803685A07E8D0012118
:1052580023462E4A08F0B6F8E2E70C990A431ED115
:10526800EBB91E4BC2B253F82230002BCAD12648E4
:1052780003685B072DD16FF00104D1E7224803686A
:105288005907CDD001212346214A08F09BF8C7E7EA
:105298001D4803685B0712D16FF00B04C0E71A487A
:1052A80003685D0710D16FF01504B9E71648036865
:1052B8005C07F8D00121174A08F06AF8F3E70121E2
:1052C800154A08F065F8E7E70121144A08F060F884
:1052D800E9E70121124A08F05BF8CCE794CB0020FB
:1052E8008CCB002084CB00207CCB0020F80700204A
:1052F8009CCB0020C0450500885F0500C41600202F
:10530800A4CB002080210020C41200204C5F05009F
:10531800105F0500F45E0500B85E0500DC5E050060
:10532800945E050030B500250B4C83B00B490C4842
:105338002EF0CEFB20462EF06BFD05234FF4806245
:10534800204608490095FDF76FF92046064903B045
:10535800BDE830402FF018B880210020C94D00006A
:10536800A4CB0020983701207C5F05002DE9F84F79
:105378001C46914600AF03F11C08D8E8AF3F012B4B
:1053880062DC0023824684F820300022002346484D
:105398008B460EF071FE0546002867D000F10C061A
:1053A80030460D210FF01EF95A46514630460FF08F
:1053B8006BF9D8E8EF3F0133C8E8E23F002AF8D19B
:1053C800BB6A7BB929464846A28919F0DBFD064627
:1053D800002E10DB0026A3890133A3813046BD4689
:1053E800BDE8F88F29464846BB6AA28919F0D0FD66
:1053F8000646002EEEDA16F1800F17D02B48036808
:1054080013F0060F12D06C4688B06B4604211A467A
:10541800DFF8A0C0C3E90669C3F814C042F8101F3A
:1054280000234FF4025108F009F8A54628460EF06B
:105438000BFFD8E8EF3F013BC8E8E23F002AF8D16C
:105448003046BD46BDE8F88F94F8205015B16FF08E
:105458000B06C3E7104618F0D9FA1448036813F08E
:10546800060F0DD1012384F82030F0E70F480368B8
:1054780013F0060FEBD002210D4A07F089FFE6E78B
:105488006E4688B06B4603211A46DFF82CC0C3F875
:105498001890C3F814C042F8101F4FF4C4512B469B
:1054A80007F0CCFFB546DDE7041C0020BC12002045
:1054B800E85F0500FC5F0500B85F05002DE9F04FC7
:1054C80099B0AE4B02AF1B787861BA62002B00F03E
:1054D800B7810C46002900F09C810346806B1D8A29
:1054E800FD61002800F04781FBF79AF8C3B27B62A0
:1054F800B5FBF0F300FB1352002A40F0A481FB61D6
:10550800BB6A002B00F0CC804FF0000CA346E246AB
:10551800C7E903CCC7F820C0C7F818C00DE0984AFF
:10552800126812F0060F40F0D080BB6A0AF1010A37
:1055380053450BF10C0B00F0AE809BF800609BF814
:1055480002509BF8014006EBC60305EBC502DB00E1
:1055580003EB820304EBC40203EBC203894A13443E
:10556800EA00FA629B89F2007A63E2003A6313B9AF
:10557800DBF804201384DBF804300421586800F0B9
:1055880013FA80460028D0D09BF808307A6A9342F4
:10559800C5D8DBF8043007F13C01986800F036FA0A
:1055A800002840F01881DBF8043007F140019868C2
:1055B80000F01EFA002840F01B813B6C724A92FBF7
:1055C800F3F2FB6BB3FBF2F3FA694FEAD30EB2EBDB
:1055D800D30F40F01A813B6ADBF80420002B65D119
:1055E800D3684FF02409DB683B62331903EBC3032C
:1055F800DB0019FB0539634B99447B69D8687B6AE2
:10560800012B68D09BF80830F96901FB0300BB69DE
:1056180000934B46FFF7AAFE002886D14FF6FF738A
:105628003A6BF96A22442944D20002EB8102796B71
:10563800DBF80400314402EBC1025249895A99420D
:1056480050D007F14403398707F1380019460CF0A8
:105658007BFC00285CD17B6BF96A3A6B33442244AB
:105668002944DC0004EB8104464B04EBC2041C44CF
:10567800BB6C60612361B7F8463023833B69002B1C
:1056880073D0BB6A0AF1010A5345C7F810800BF1C1
:105698000C0B7FF452AF3B69D7F818C0002B7DD1B3
:1056A800002318465C37BD46BDE8F08FD368386ADA
:1056B800D968814295D0324803685A0700F0A9801A
:1056C8000121324A07F064FEA3E00221304A2C4847
:1056D80007F078FE29E7BB690093F9694B46FFF7A5
:1056E80045FE99E707F14403194640687A60BB60B4
:1056F80018F094F9D7E9012348B32148036813F057
:10570800060F3FF412AF0221224A07F041FE0CE7D0
:1057180010F1800F3FF409AF194B1A6812F0060F09
:105728003FF403AF6C4688B0DBF8042002A9C1E956
:1057380006020A460420184D4D6142F8100F4FF436
:1057480002511846002307F079FEA546EDE6B86C2D
:1057580049460068C7E9013214F0DCFBD7E9013299
:10576800002859D10749895A6DE7FBF7F9F82369E9
:10577800F860BB6185E701237B62C1E66CFC002011
:10578800BC120020B822002040420F000061050032
:105798005C6005002C610500706105000124F86853
:1057A8000023B86400222E4807F14401C7F844C01A
:1057B80087F84C4019F0C8FF034600283FF470AF43
:1057C8002848026812F0060F3FF46AAF0221264A01
:1057D80007F0F8FD64E703462248026855073FF4DE
:1057E80060AF0121214A7B6307F0ECFD7B6B58E732
:1057F80003461C48026854073FF453AF01211C4A72
:105808007B6307F0DFFD7B6B4BE71648036859079E
:105818000ED16FF0150344E7124A13685B073FF493
:1058280084AE012103461046124A07F0CBFD7CE600
:105838000121FB69104ACDF800E007F0DFFDE8E739
:105848006FF00C032DE7074A13685E07E1D0FC6987
:105858000346012110460094084A07F0CFFDD8E717
:10586800DC430500BC1200209C6105007C6005003B
:105878009C60050048610500C060050024600500C3
:1058880030B51F4A83B012780190C0F30721C0F3E6
:1058980007438AB34FF01C0C242212FB03C24FF0BB
:1058A800000CC0B20C1804EBC40402EBC402154C83
:1058B8002244D2E8EFEFC2E8E5CF002DF9D100EBA2
:1058C800C000C00003EBC30301EBC102990000EB69
:1058D800830303EBC2034FF6FF7E01EBC2020244CF
:1058E8006046234483F820C024F802E0A3F80CC0E3
:1058F800A3F818C003B030BD6FF00C00FAE700BF82
:105908006CFC0020B8220020114B82B01B7801905B
:10591800D3B124231C209DF806C09DF8041013FB66
:105928000C039DF805200A4402EBC202094903EB67
:10593800C2030B44D3E8EF1F0139C3E8E21F002A72
:10594800F8D1002002B070476FF00C00FAE700BFF2
:105958006CFC0020B822002000224FF6FF7C0020BB
:1059680000210F4B00B503F1900EC3E90301C3E911
:1059780009011A7723F804CC1A605A601A819A82AE
:1059880083F84020A3F820C09A851A635A631A87BF
:1059980048339E45E9D10122024B1A705DF804FB99
:1059A800BC2200206CFC0020D8B110B586B00C4693
:1059B80001A918F033F838B99DF80500001BB0FAB2
:1059C80080F0400906B010BD0748036813F0060FC1
:1059D80002D1002006B010BD0221044A07F0D8FC0D
:1059E800F7E70020704700BF041300202C61050072
:1059F80010B50C4618F000FA002806DBC0B218F003
:105A0800A3F90028A4BF2060002010BD70B505468A
:105A18000E4618F0F1F9041E11DBE0B218F094F903
:105A2800041E0CDB284618F053FA002809DB064B45
:105A380093FBF4F3002400FB03F3DB003360204600
:105A480070BD0446204670BD40420F008378062B87
:105A580009D06D48026812F0060F00D17047022184
:105A68006A4A07F0AFBC2DE9F04385B004460D46FD
:105A780018F098F9061E77DBF0B218F059F9061EEF
:105A880072DB204618F0B8F9071E74DBF8B218F07C
:105A98005BF9071E6FDB204618F01AFAB0F1000810
:105AA80079DB0121204618F02FFAB0F100097ADBE2
:105AB8000022204602A918F0BFF910F13D0F7AD054
:105AC800002840F08680204603A9FFF79FFF0028A2
